:020000040800F2
:10000000201B002075020008C91F0008C11D000840
:10001000C51F00085D0500087D3D000800000000C8
:10002000000000000000000000000000F9210008AE
:100030002106000800000000F52100083122000818
:100040008F0200088F0200088F0200088F0200084C
:100050008F0200088F0200088F0200088F0200083C
:100060008F0200088F0200088F0200088F0200082C
:100070008F0200088F0200088F0200088F0200081C
:100080008F0200088F0200088F02000800000000A5
:100090000000000000000000000000008F020008C7
:1000A000F12200088F0200088F0200088F0200086A
:1000B0008F0200088F0200088F0200088F020008DC
:1000C0008F0200088F0200088F0200088F020008CC
:1000D0008F0200088F0200088F0200080000000055
:1000E000250600088F0200088F02000800000000AB
:1000F0000000000000000000000000008F02000867
:10010000000000008F0200088F0200088F02000824
:1001100000000000000000000000000000000000DF
:100120008F0200088F0200088F0200088F0200086B
:100130008F02000800000000000000000000000026
:10014000000000000000000000000000F91F00088F
:100150008F0200088F0200088F0200088F0200083B
:100160008F0200088F02000800000000000000005D
:10017000000000000000000000000000000000007F
:10018000000000008F0200080000000000000000D6
:100190008F02000800F002F800F05CF80AA090E876
:1001A000000C82448344AAF10107DA4501D100F032
:1001B00051F8AFF2090EBAE80F0013F0010F18BFA3
:1001C000FB1A43F001031847243F0000443F00009E
:1001D0000A444FF0000C10F8013B13F0070408BF6D
:1001E00010F8014B1D1108BF10F8015B641E05D00B
:1001F00010F8016B641E01F8016BF9D113F0080FC0
:100200001EBF10F8014BAD1C0C1B09D16D1E58BF51
:1002100001F801CBFAD505E014F8016B01F8016B88
:100220006D1EF9D59142D6D37047000000230024FB
:1002300000250026103A28BF78C1FBD8520728BFF6
:1002400030C148BF0B6070471FB503F039FF1FBDB9
:1002500010B510BD00F047F91146FFF7F5FF03F0A8
:10026000FDFD00F065F903B4FFF7F2FF03BC00F0F9
:100270006DF900000948804709480047FEE7FEE79E
:10028000FEE7FEE7FEE7FEE7FEE7FEE7FEE7FEE746
:1002900004480549054A064B70470000DD22000866
:1002A0009501000820150020201B002020170020A9
:1002B0002017002053EA020C00F069802DE9F04B72
:1002C0004FF00006002B1FBFB3FA83F503FA05F4C5
:1002D00024FA05F65E4012BF1643B2FA82F502FA1E
:1002E00005F4C5F120051EBF22FA05FC44EA0C0402
:1002F000203556EA044C4FEA144418BF641C4FF0F2
:1003000000084FF00009904271EB030C39D300292B
:1003100019BFB1FA81F701FA07F6B0FA80F700FACF
:1003200007F6C7F120071EBF20FA07FC46EA0C06B5
:100330002037B6FBF4FCA7EB0507103F07F01F0BB7
:10034000CBF120062CFA06F60CFA0BFB44BFB346A1
:100350000026202FA4BF5E464FF0000B5BEA060C80
:1003600008BF4FF0010B19EB0B0948EB0608ABFB7C
:10037000027C06FB02CC0BFB03CCC01B71EB0C0117
:10038000C1E70B46024641464846BDE8F08B13B52F
:10039000084318BF4FF0FF300146AFF30080BDE8BF
:1003A0001C407047032A40F2308010F0030C00F02C
:1003B000158011F8013BBCF1020F624498BF11F89F
:1003C00001CB00F8013B38BF11F8013BA2F1040258
:1003D00098BF00F801CB38BF00F8013B11F00303D0
:1003E00000F04F80083AC0F0088051F8043B083A0A
:1003F00051F804CBA0E80810F5E7121D5CBF51F8D6
:10040000043B40F8043BAFF30080D20724BF11F84F
:10041000013B11F801CB48BF11F8012B24BF00F8B4
:10042000013B00F801CB48BF00F8012B70474FF0AB
:10043000000200B5134694469646203922BFA0E834
:100440000C50A0E80C50B1F12001BFF4F7AF090740
:1004500028BFA0E80C5048BF0CC05DF804EB890031
:1004600028BF40F8042B08BF704748BF20F8022B74
:1004700011F0804F18BF00F8012B7047704770478C
:10048000704710B5203AC0F00B80B1E81850A0E8D2
:100490001850B1E81850A0E81850203ABFF4F5AF52
:1004A0005FEA027C24BFB1E81850A0E8185044BFAE
:1004B00018C918C0BDE810405FEA827C24BF51F81B
:1004C000043B40F8043B08BF7047D20728BF31F80F
:1004D000023B48BF11F8012B28BF20F8023B48BF60
:1004E00000F8012B7047754600F02CF8AE46050069
:1004F0006946534620F00700854618B020B5FFF73F
:10050000C7FEBDE820404FF000064FF000074FF057
:1005100000084FF0000BAC46ACE8C009ACE8C009DD
:10052000ACE8C009ACE8C00921F007018D4670476E
:1005300010B50446AFF300802046BDE81040FFF739
:1005400092BE000000487047800100200149182039
:10055000ABBEFEE72600020070470000FEE7000089
:10056000002070470020704710B540F6F054C2F2EA
:10057000000440F60621C2F200012046002202F0EB
:1005800083F840F21E61C2F20001204602F072F8C8
:10059000002010BD70B540F6F0560546C2F20006C8
:1005A0000C463046294602F065F8304602F044F821
:1005B000227840F21860C2F200002946FFF7F2FEEE
:1005C000002070BD0020704710B540F6F052C2F216
:1005D0000002D2F8BC22D2F81432002B1CBF01203A
:1005E00010BD40F6F054C2F200040A46014620460F
:1005F00002F04AF8204602F0D9F810BD4EF6FC5041
:10060000CEF20000016841F08071016041F200000B
:10061000CEF20000016841F0010101607047000066
:100620007047000080B54FF4804000F0B3F84FF4FD
:10063000004000F0AFF880BDEFF3108072B600BF4D
:10064000FEE70000B0B547F61021C1F6FF7108685B
:100650008A68801808BFB0BD40F25C15C2F2000580
:100660004C68A91C082201F0ADFB05F112012046DF
:10067000042201F0A7FBB0BDB0B5044600F070F94C
:10068000054640F27710C2F200000078611C18BFE6
:10069000044400BF00F064F9401BA042FAD3B0BD8F
:1006A000B0B5B0F5804F3AD0B0F5004F70D140F6FC
:1006B0001804C4F20204A4F583604FF4806100F0D2
:1006C00043F9012864D140F21860C2F200000078BA
:1006D00000285DD0282000F0B7F940F27610C2F271
:1006E00000000521017041F21150C2F20000012505
:1006F000057040F6EF50C2F200000570206840F42B
:100700000050206000F02CF941F21851C2F20001B3
:10071000087041F21050C2F200000570B0BD40F602
:100720001804C4F20204A4F583604FF4806100F061
:100730000BF901282CD140F21860C2F200000078B9
:10074000002808BFB0BD282000F07EF940F27610E6
:10075000C2F200000521017041F21150C2F2000006
:100760000221017040F6EF50C2F2000001702068D3
:1007700040F00050206000F0F3F841F21851C2F24E
:100780000001087041F21050C2F200000121017016
:10079000B0BD000080B543F61441C4F201010A68FF
:1007A000024208BF80BD0860FFF77AFF80BD0000ED
:1007B0002DE9F04F83B000F13E4202F1FF724FEAA3
:1007C000B22241F200070192C4F2020707224FF061
:1007D000010E00254FF0000A4FF00008B84208BF94
:1007E000042200920AE000BF08F101080AF1040A9D
:1007F000B8F1100F05F1020500F0A2800C680EFAA6
:1008000008FB14EA0B09EFD04C6804F0030CACF1C0
:10081000010EBEF1010F11D80322876802FA05F616
:10082000CA68B743AA403A4382604268C4F30017DB
:1008300022EA0B0207FA08F73A434260BCF1030FC1
:100840001CD0C26803238E6803FA05F7BA4306FA80
:1008500005F73A43BCF1020FC2600FD16FF00302FB
:1008600002EA580202440AF01C060F23176A03FA30
:1008700006F40B69A743B3403B43136202680323AA
:100880004F68AB409A4307F00303AB401A4317F499
:10089000403F4FF0010E0260A6D0002243F6440311
:1008A0000292C4F202031A6843F6004442F4804202
:1008B0001A601A68C4F2010402F480420292029A99
:1008C00028F003024FF6084B2244CFF6FF7B52F884
:1008D0000B300AF00C070F26BE4023EA060C019BE2
:1008E000009E042B38BF1E4606FA07F747EA0C03A2
:1008F00042F80B3022684B6842EA0907DE0358BF12
:1009000022EA0907276062689E0342EA090758BF86
:1009100022EA09076760A268DE0242EA090758BFB7
:1009200022EA0907A76043F60C47C4F201073A68B8
:100930009B0242EA090358BF22EA09033B6053E7DE
:1009400003B0BDE8F08F00000069084018BF012027
:1009500070470000002A08BF090481617047000049
:1009600041F21C50C2F200000068704740F277105C
:1009700041F21C51C2F20000C2F2000100780A6884
:10098000104408607047000080B543F60040C4F290
:100990000200016841F400710160016841F4806166
:1009A0000160016841F480710160032000F064F887
:1009B0000F2000F005F800F02BF8002080BD0000AB
:1009C000B0B540F27712C2F2000240F21C01127878
:1009D000C2F200014FF47A730968B3FBF2F20446E5
:1009E000B1FBF2F1084600F0D7FF0F2C4FF00105E4
:1009F0000CD858B94FF0FF3021460022002500F0F6
:100A00002BF840F27810C2F2000004602846B0BD16
:100A100082B0002043F640010190C4F202014A680E
:100A200042F480424A604A6802F480420192019A8C
:100A30000090086840F080500860086800F080501E
:100A40000090009802B0704780B503F0A1F980BD16
:100A500080B503F0B1F980BD70B514460D46064669
:100A600003F0BAF92946224601F0B0FA01463046B1
:100A700003F0BAF970BD000080B503F0C7F980BD7E
:100A800070470000026800205162704710B5D0F82E
:100A900000C0DCF82400D9B1DCF82830B1F1010E37
:100AA00000EB13430CD00021002000BF0CEB8101B0
:100AB000D1F804410130C1B28E4503EB1443F5D89F
:100AC00043EA02400CEB8E01C1F80401002010BD86
:100AD00040EA0240CCF82800002010BD80B5D0F8D4
:100AE000040402F0F9F880BD80B5C1EBC102D0F872
:100AF000043400EB8200826C184602F063F880BD7B
:100B000080B5C1EBC102D0F8043400EB8200D0F80C
:100B10000822184602F0AAF880BD000080B5D0F87F
:100B2000040402F0DBF880BD10B50446080601F0AD
:100B30000F00C0EBC00104EB810205D402F5FE7189
:100B4000002382F8FD3104E0012302F13C0182F828
:100B50003D3094F8BC230870012A04BF022010BD68
:100B60002068012284F8BC2302F07EFC002084F877
:100B7000BC0310BDB0B54268044601F00F009042BE
:100B800084BF0120B0BD090609D4C0EBC00104EB4D
:100B9000810202F5FE71002382F8FD3108E0C0EB0E
:100BA000C00104EB8102012302F13C0182F83D30D7
:100BB00094F8BC230025012A8D70087004BF022020
:100BC000B0BD2068012284F8BC2302F01BFE284639
:100BD00084F8BC53B0BD000001F00F01C1EBC101AE
:100BE00000EB8100D0F8140270470000B0B5054654
:100BF000080601F00F00C0EBC00105EB810C05D425
:100C00000CF5FE7100248CF8FD4104E001240CF188
:100C10003C018CF83D404C780870002C8A60CB7009
:100C200018BFC880022B04BF0020087195F8BC03D0
:100C3000012804BF0220B0BD2868012285F8BC232A
:100C400002F054FB002085F8BC03B0BD10B501F0E4
:100C50000F0CCCEBCC0100EB81044FF0000EC4F87C
:100C600014E284F8FDE1D0F810E0C4F80822C4F8DA
:100C70001032BEF1010F84F8FCC108BFC4F80C2289
:100C8000006804F5FE715FFA8EF2BCF1000F03D02C
:100C900002F008FE002010BD02F008FD002010BD8B
:100CA000B0B50446406801F00F05854284BF0120BD
:100CB000B0BD080609D4C1EBC10004EB800000F50B
:100CC000FE71002280F8FD2108E0C5EBC50004EBB1
:100CD0008000012200F13C0180F83D2094F8BC0323
:100CE000012201288A700D7004BF0220B0BD206867
:100CF00084F8BC2302F0AEFD2DB92068217C04F5F8
:100D0000717202F051FD002084F8BC03B0BD0000F8
:100D1000B0B501F00F0CCCEBCC0100EB81052946FE
:100D200001F83CCF0024D0F810E08C6101244C7015
:100D3000CA60BEF1010F4B6108BFEA6400685FFA48
:100D40008EF2BCF1000F03D002F0ACFD0020B0BD6C
:100D500002F0ACFC0020B0BD2DE9F04F81B0D0F81E
:100D600000908246484602F0BDFE10B101B0BDE8D9
:100D7000F08FDAF8000002F0E3FE0028F6D0DAF88F
:100D8000000002F0DDFE800705D5DAF800004169B9
:100D900001F002014161DAF8000002F0D1FEC00664
:100DA00041D5DAF80000816921F010018161D9F89C
:100DB0002040C4F34340062804F00F051CD002284D
:100DC0002BD147F6F070044027D0C5EBC5000AEBE5
:100DD0008005D5F808122209484602F0B5FED5F87C
:100DE0000802D5F8141200EB1410C5F8080201EB44
:100DF0001410C5F8140210E00AF571714846082273
:100E000002F0A2FEC5EBC5000AEB8000D0F8141278
:100E1000C4F30A121144C0F81412DAF80000816910
:100E200041F010018161DAF8000002F089FE000350
:100E30003CD5DAF8000002F061FEB8B3064609F5C9
:100E400030654FF000084FF0010B002715E000BFA0
:100E5000E00644BF1020A860A00644BF2020A86080
:100E6000A00444BF4FF40050A8600137B8EB560F00
:100E70004FEA560605F1200518D0F007F5D0DAF84C
:100E80000000F9B202F054FE0446C00705D05046F7
:100E90003946C5F808B001F0DDF82007D8D508209C
:100EA000A8605046394601F0AFF8D1E7DAF8000003
:100EB00002F046FE400364D5DAF8000002F016FEA8
:100EC00000285ED006460AF5717009F510640AF133
:100ED00044080025002700900AE000BF0137B5EB69
:100EE000560F4FEA560604F1200408F11C0848D0BA
:100EF000F007F3D0DAF800005FFA87FB594602F0FA
:100F000005FE0546C00723D007F00F00D9F83418B6
:100F1000012202FA00F021EA0000C9F83408A260B8
:100F2000DAF8100001280FD1D8E900010844C8F808
:100F300004004FB9D8F80C0030B9DAF80000009A74
:100F4000012102F031FC00BF50465946FFF7CCFDAD
:100F5000280744BF0820A060E80644BF1020A06016
:100F6000680644BF4020A060A80744BF0220A060DC
:100F700028064FF00005B1D55046394601F0D2F8A9
:100F8000ACE7DAF8000002F0DBFDB0F1FF3F1ADC5D
:100F9000D9F8040820F00100C9F804089AF8F4030D
:100FA000012807D100208AF8F40350460021FFF7FA
:100FB00067FD02E0504600F0FDF9DAF800004169F3
:100FC00001F000414161DAF8000002F0B9FD0005CE
:100FD0000CD5D9F80808C00702D0504600F034FA02
:100FE000DAF80000416901F400614161DAF80000BB
:100FF00002F0A6FDC00460D5D9F80408102120F045
:101000000100C9F80408DAF8000009F5006402F0EC
:1010100043FDDAF8040018B3DAF8041009F510609B
:1010200000224FF67F3300BF83600768013227F448
:101030000017076007688A4247F000670760C0F83A
:101040000832D0F8007227F40017C0F80072D0F808
:10105000007247F00067C0F8007200F12000E3D38F
:10106000E06940F00110E061DAF8300040B1D4F8F6
:10107000840040F00B00C4F8840004F1440006E052
:10108000606942F22B010843606104F110000168BD
:101090000AF5717241F00B010160206820F4FE60D6
:1010A0002060DAF800009AF8101002F07DFBDAF800
:1010B0000000416901F480514161DAF8000002F05A
:1010C0003FFD80041CD5DAF8000002F05BF9DAF885
:1010D000000002F0F9FCDAF80040CAF80C0000F059
:1010E0007DFA9AF80C200146204602F0A1FD5046F8
:1010F00000F04EF9DAF80000416901F40051416155
:10110000DAF8000002F01CFD000708D5504600F098
:1011100057F9DAF80000416901F008014161DAF895
:10112000000002F00DFDC00209D55046002100F07C
:101130003DF8DAF80000416901F480114161DAF804
:10114000000002F0FDFC800209D55046002100F0AD
:1011500033F8DAF80000416901F400114161DAF86E
:10116000000002F0EDFC400008D55046FFF7B6FC49
:10117000DAF80000416901F080414161DAF80000CD
:1011800002F0DEFC40077FF5F1ADDAF800004468BC
:10119000600702D55046FFF7C1FCDAF8000041684D
:1011A0002143416001B0BDE8F08F000080B5D0F868
:1011B000040401F0EDFD80BD80B5D0F8040401F019
:1011C000F7FD80BD2DE9F04F8BB098B3044605685C
:1011D00090F8BD0328B9002084F8BC03204600F035
:1011E00093F8032084F8BD03E86BC0055CBF0020C2
:1011F0002061206802F052FA206804F11C0A0A906B
:10120000D4E90C5004F1040E9AE8C0079EE80E5889
:10121000CDE9085003A880E8C0030A988DE800587B
:10122000CDF81CA002F0BEF830B1022084F8BD0356
:10123000012564E0012562E020680021002502F01C
:10124000A9FC6168C1B1616801200023002200BFD0
:10125000C3EBC30304EB830787F83C20D3B201320E
:10126000A7F84230D3B2994287F83D0087F83F5043
:10127000C7E911553D65EBD8A1B10020002300223C
:10128000C3EBC30304EB830787F8FC210132D3B21D
:10129000994287F8FD0187F8FF01C7E98100C7F887
:1012A0001002EDD8A06822680A90D4E90C5004F12D
:1012B000140E04F1240AD4E903379EE840589AE852
:1012C0000007CDE9085002A880E8005810460A9AA5
:1012D000CDE90076CDE90589CDF81CA002F02EF904
:1012E00020B1022084F8BD03012508E0002501207B
:1012F00084F8385084F8BD03206802F00FF92846BE
:101300000BB0BDE8F08F0000B0B586B000680024D7
:10131000B0F1A04F0594CDE903440294019401D0AB
:1013200006B0B0BD43F630050094C4F2020528684B
:1013300001A940F001002860286800F00100009039
:1013400000984FF4C05001900220CDE90204032020
:1013500004900A2005900020C4F20200FFF728FA4A
:101360006868002140F0800068600094686900228D
:1013700040F480406861686900F480400090009803
:101380004320FFF769FB4320FFF762FB06B0B0BDC7
:1013900010B50446C068022818BFFFF74DF9D4F80D
:1013A0000404012101F074FDD4F8040401F024FDCB
:1013B00010BD000080B5D0F8040401F04FFD80BDE1
:1013C00080B5D0F8040401F053FD80BD10B504468B
:1013D00090F8BC03012804BF022010BD012084F84E
:1013E000BC0384F83810206802F008FC002084F860
:1013F000BC0310BD80B5D0F8042400F5717110460F
:1014000001F052FD80BD000010B5044690F8BC0309
:10141000012804BF022010BDA16A20680122012911
:1014200084F8BC2306D1A169012903D0816B41F462
:101430008031816302F010FB206802F05FF8002029
:1014400084F8BC0310BD000010B50446D0F80404B5
:1014500001F066FD2068D0F8001E41F00101C0F8DF
:10146000001E206A002808BF10BD4EF61050CEF2B4
:101470000000016841F00601016010BD2DE9F04156
:10148000002800F08B8043F60808C4F202080446E6
:10149000D8F8F8030D4600F00700884207D288F814
:1014A000F853D8F8F80300F00700A84276D1206876
:1014B000810717D5410705D5D8F8001041F4E05150
:1014C000C8F80010010705D5D8F8001041F46041B4
:1014D000C8F80010D8F80010A26821F0F0011143FC
:1014E000C8F80010C0073FD1D8F8F80300F0070093
:1014F000A84207D988F8F853D8F8F80300F0070095
:10150000A8424BD12068410707D5D8F80010E268FF
:1015100021F4E0511143C8F80010000708D5D8F8AD
:101520000000216920F4604040EAC100C8F80000D2
:1015300000F05AF8D8F8001044F2DA02C1F30311AF
:10154000C0F60002515C40F21C0220FA01F140F2A8
:101550007810C2F200000068C2F200021160FFF7CA
:101560002FFA0020BDE8F0816068811E022907D2B1
:1015700058F8081C89015CBF0120BDE8F08110E02B
:10158000012807D158F8081C89035CBF0120BDE879
:10159000F08106E058F8081C890702D40120BDE854
:1015A000F081D8F8001021F003010843C8F80000CA
:1015B000FFF7D6F9064641F2883700BFD8F8000099
:1015C000616800F00C00B0EB810F8DD0FFF7C8F917
:1015D000801BB842F2D90320BDE8F08140F21C0024
:1015E000C2F200000068704710B543F60404C4F26C
:1015F0000204606800F00C0008280AD0042819BF13
:1016000042F20040C0F2F40047F64000C0F27D1004
:1016100010BD206821682368490247F64001C0F2E6
:101620007D1100F03F02C3F388105CBF42F200411D
:10163000C0F2F401A1FB00010023FEF73BFE21688C
:101640000222C1F3014102EB4101B0FBF1F010BDF8
:101650002DE9F04182B0002800F0A2800446007815
:1016600043F60006C007C4F2020643D0B06800F09B
:101670000C00042805D1306880033BD56068C8BBE6
:101680008EE0B06800F00C00082802D170684002BB
:10169000F1D46568B5F5A02F0AD0B5F5803F0BD021
:1016A000306820F480303060306820F4802006E01C
:1016B000306840F480203060306840F48030306022
:1016C000FFF74EF9002D054611D000BF30688003AA
:1016D00010D4FFF745F9401B6428F7D922E100BF79
:1016E000FFF73EF9401B64284FF0030055D83068DF
:1016F0008003F5D4207880071AD5B06810F00C0F5D
:1017000009D0B06800F00C00082840F08A807068AA
:10171000400200F186803068800702D5E068012829
:101720003ED13068216920F0F80040EAC100306005
:101730002078000738D4207840074CD4A5695DB3E1
:10174000B06800F00C00082840F09E80012D27D0E2
:101750007068E16900F480028A4221D1216A00F0B8
:101760003F028A421CD147F6C071626A0140B1EB68
:10177000821F15D1A26A0023CFF6FF7303EBC2329A
:1017800000F440316FF30F02914209D1E16A00F099
:101790007060B0EB016F03D1002002B0BDE8F081B2
:1017A000012002B0BDE8F0816069002840F200002D
:1017B000C4F2472057D00121C0F8801EFFF7D0F8AF
:1017C000054600BF706F8007B5D4FFF7C9F8401B0E
:1017D0000228F7D9A6E0306C10F080580AD100201A
:1017E0000190306C40F080503064306C00F08050DC
:1017F0000190019847F20007C4F200073868C0055D
:1018000024D4386840F480703860FFF7A9F80546A2
:101810003868C0051AD4FFF7A3F8401B0228F7D98F
:1018200080E0E068002851D00020C4F24720012168
:101830000160FFF795F80546306880073FF571AF06
:10184000FFF78EF8401B0228F6D96BE0A568052D3E
:1018500050D0012D52D0306F20F001003067306F32
:1018600020F004004DE00021C0F8801EFFF778F85A
:10187000054600BF706F80077FF55DAFFFF770F81A
:10188000401B0228F6D94DE00027C4F2472700206C
:101890003866FFF765F8022D05460BD130688001E8
:1018A00058D5FFF75DF8401B02284FF00300F5D92B
:1018B00073E700BF306880017FF56EAFFFF750F827
:1018C000401B02284FF00300F4D966E70020C4F261
:1018D000472000210160FFF743F805463068800784
:1018E0007FF526AFFFF73CF8401B02284FF00300BE
:1018F000F4D952E7306F40F004003067306F40F0A9
:1019000001003067FFF72CF8002D054641F28837BB
:1019100014D000BF306F800713D4FFF721F8401BAD
:10192000B842F7D9032002B0BDE8F081FFF718F8FC
:10193000401BB8424FF003003FF62FAF306F8007D7
:10194000F4D4B8F1000F7FF4F9AE306C20F0805081
:101950003064F3E604F11C052FCD08430021CFF6D7
:10196000FF7140EA821001EBC3316FF30F0140EACF
:1019700005600843706001203866FEF7F1FF0446F9
:10198000306880013FF508AFFEF7EAFF001B022830
:101990004FF00300F4D900E780B500F031FC80BDC2
:1019A000704700007047000010B590F83C20012AF5
:1019B0004FF0020240D0012380F83C3080F83D20F7
:1019C0000268D2F804E0D2F808C00C682EF0700368
:1019D000234340F6FF34C4F20004A24253600FDCFC
:1019E000B2F1804F1DD040F20043C4F200039A428E
:1019F00017D040F60003C4F200039A4211D015E05C
:101A000040F60043C4F200039A420AD044F20003B5
:101A1000C4F201039A4204D00023C4F201039A42A3
:101A200004D149682CF08003194391600121002200
:101A300080F83D1080F83C20104610BD002804BFFF
:101A40000120704710B5044690F83D0028B90020E9
:101A500084F83C00204600F01FF8022084F83D0086
:101A60002068211D00F04CFC012084F8460084F819
:101A70003E0084F83F0084F8400084F8410084F878
:101A8000420084F8430084F8440084F8450084F858
:101A90003D00002010BD000080B582B0006800212C
:101AA000C4F20101884201D002B080BD0020019043
:101AB00043F64400C4F202000168002241F0010133
:101AC00001600068002100F00100019001981820D9
:101AD000FEF7C2FF1820FEF7BBFF02B080BD00007A
:101AE0000146006841F21113C26822F00102C2608F
:101AF000026A1A4208D1026A40F244431A4203D1F0
:101B0000026822F0010202600122002081F83D20DB
:101B10007047000010B5044690F83C0001284FF0D3
:101B2000020008BF10BD012284F83C2084F83D006B
:101B300020684FF6777382689A4382600A684F2A5A
:101B40000FDC1F2A22DD202A23D0302A21D0402A70
:101B50004DD14B68CA68194600F054FC20684021FA
:101B60003BE06F2A17DDB2F5005F20D0B2F5805F51
:101B70002AD0702A3BD1D1E9012CCB68614600F014
:101B80002DFC2068816841F077011AE00AB1102A23
:101B90002DD1114621E0502A18D0602A27D14B6858
:101BA000CA68194600F040FC2068602115E0D1E9C0
:101BB000012CCB68614600F011FC2068816841F47B
:101BC0008041816000200BE0002009E04B68CA687A
:101BD000194600F017FC2068502100F00BFC002093
:101BE000012184F83D10002184F83C1010BD012033
:101BF000F6E700007047000010B504460068016970
:101C0000890744BFC1685FEA817138D420680169DF
:101C1000490744BFC1685FEA41713CD4206801694B
:101C2000090744BFC1685FEA017141D420680169B6
:101C3000C90644BFC1685FEAC16145D42068016933
:101C4000C9071CBFC1685FEAC1714AD12068016938
:101C5000090644BFC1685FEA016149D4206801698F
:101C6000490644BFC1685FEA416148D42068016900
:101C7000890644BFC1685FEA816147D410BD6FF037
:101C800002010161012121778069800745D020464A
:101C9000FFF7B0FF47E06FF00401016102212177F7
:101CA000806910F4407F41D02046FFF7A3FF43E056
:101CB0006FF00801016104212177C06980073ED0DF
:101CC0002046FFF797FF40E06FF010010161082107
:101CD0002177C06910F4407F3AD02046FFF78AFF91
:101CE0003CE06FF001010161204600F03FF8ADE7F4
:101CF0006FF0800101612046FFF752FEAEE76FF002
:101D000040010161204600F059F8AFE76FF0200173
:101D100001612046FFF746FE10BD204600F022F884
:101D2000204600F021F8002020776FE7204600F0E1
:101D300019F8204600F018F8002020776EE72046BA
:101D400000F010F8204600F00FF8002020776DE733
:101D5000204600F007F8204600F006F80020207723
:101D60006CE70000704700007047000010B541F2BA
:101D70001054C2F20004217801291DD1006800210D
:101D8000C4F20101884218BF10BD41F2C840C2F23E
:101D90000000FFF7A5FE43F61440C4F201004FF423
:101DA000004101604FF48041016001F0E9FF28200B
:101DB000FEF74EFE0020207010BD000070470000AE
:101DC000FEE7000010B5002A08BF10BD02394FF031
:101DD000370C4FF0000E00BF0CEB1074B0F1204F29
:101DE0004FEA107338BF03F1300401F8024F0001CD
:101DF000013A81F801E0EFD110BD00002DE9F04378
:101E000087B0002743F630000697CDE90477CDE987
:101E100002770197C4F20200016840F2004941F0E4
:101E2000040101600168C4F2020901F0040101919A
:101E300001990197016809F5806541F08001016011
:101E40000168002201F08001019101990197016868
:101E50004FF4005641F002010160016801F00201F7
:101E6000019101990197016841F001010160006849
:101E70004FF4005100F00100019001982846FEF750
:101E800069FD48464FF49E6100224FF49E68FEF7BC
:101E900061FD029602AE012428463146CDE9034792
:101EA0000597FEF785FC48463146CDE90284CDE929
:101EB0000477FEF77DFC4FF4404002904FF4881009
:101EC00003900220049048463146FEF771FC28201A
:101ED00000210022FEF7C0FD2820FEF7B9FD07B063
:101EE000BDE8F08380B586B041F2C84000220021F1
:101EF000C2F20000C4F2010253234FF00A0CCDE9F4
:101F00000411CDE90211CDE90011C0E90023C0E9B7
:101F1000021CC0E904118161FFF790FDC0B94FF4C4
:101F20008050029041F2C840C2F2000002A9FFF7BF
:101F3000F1FD68B90020CDE9000041F2C840C2F2CD
:101F400000006946FFF730FD002804BF06B080BDE1
:101F5000FEF772FB80B540F6F05040F20001C2F28D
:101F60000000C2F20001002200F004FE002818BFA9
:101F7000FEF762FB40F6F05040F22001C2F2000092
:101F8000C2F2000100F0F2FF002818BFFEF754FB78
:101F900040F6F05040F24411C2F20000C2F20001DB
:101FA00000F060FB002818BFFEF746FB40F6F0503B
:101FB000C2F2000001F088F8002818BFFEF73CFBD1
:101FC00080BD0000FEE70000FEE7000000F0070013
:101FD00080F00703042B28BF04234FF0FF3C033895
:101FE0000CFA03F338BF0020994381400CFA00F04B
:101FF00022EA00000843704780B541F2C000C2F2F7
:102000000000FEF7A9FE80BD70B50446006843F2EB
:102010000B06056C00EB4110D0F8081BC4F6547693
:10202000B54207D311F400411EBF00F530604FF4F4
:10203000004181602046FFF7DDF9B54209D32069F0
:10204000012818BF70BD206804F57172012101F0EC
:10205000ABFB70BD70B5044600680E4600EB411145
:10206000036CD1F8082B256901F53061012D29D1C8
:10207000150739D4950652D412F0280F18BF70BD39
:1020800043F20B05C4F65475AB4202D312F400427E
:1020900033D1C6EBC6020B6904EB8201D1E981257D
:1020A0006FF3DF43D31A2A44C1F81432C1F808226F
:1020B000AEB9D1F8101291B904F57172012101F095
:1020C00073FB0CE043F20B05C4F65475FF35AB42CD
:1020D00017D1100411D4900644BF20208860F1B2BB
:1020E0002046FEF70DFD70BD43F20B00C4F65470A0
:1020F000834213D312F4004010D04FF400408860A4
:1021000070BD3EB9D4F8101221B904F571720021E6
:1021100001F04AFBF1B22046FEF7F2FC70BD202030
:10212000886070BD2DE9F04F85B00646C1EBC10057
:1021300006EB8000054655F8507F2C4654F8042FD6
:10214000974254D38346D6F800C05BF8443FBA1A8E
:102150009A4288BF1A460291CDF810C00CEB41118B
:10216000D1F8183903329BB2B3EB920F2ED300F1A2
:102170004808029801F510615FFA80FA039100BFE8
:1021800020682968814221D9DBF80020A1EB0009F1
:102190009145D8F80010377C88BF914604981FFA03
:1021A00089F35246009701F0CFFDD8F8000021686E
:1021B0004844C8F8000001EB09002060039809F1C9
:1021C0000301806980B2B0EB910FD9D228682168F1
:1021D000884202980BD8049B00F00F000121D3F82D
:1021E000342801FA00F022EA0000C3F8340805B0F0
:1021F000BDE8F08F7047000070470000008870470E
:10220000B0B501380024B4EB106F1CBF0120B0BD85
:102210004EF21005CEF2000568604FF0FF300F213E
:1022200001F0E2FD0720AC6028602046B0BD000050
:1022300080B5FEF79BFB80BD70B592B006AC204622
:102240003021FEF7F4F8002543F640000595CDE96E
:102250000355CDE901550095C4F20200016802263C
:1022600041F080510160006800F0805000900098BB
:1022700047F200000095C4F20000016866F38F3158
:102280000160006800F44040009000980120069032
:102290004FF4803007904FF480000D9019200E907D
:1022A0004FF4A8700F900420109007201190204642
:1022B0000C96FFF7CDF978B90F20CDE901064FF460
:1022C0008050CDE9040501A802210395FFF7D6F857
:1022D000002804BF12B070BDFEF7AEF94EF688506C
:1022E000CEF20000016841F4700101607047000007
:1022F00080B541F2C840C2F20000FFF77DFC80BD0E
:1023000010B540F2FF7E0368C4F2000E40F2000CEC
:102310007045C4F2010C0ADD40F60002C4F200026E
:1023200090420DD060450BD040F6004204E0B0F181
:10233000804F05D040F20042C4F20002904203D127
:102340004A6823F0700313434FF6FF72C4F2000291
:10235000904209DC704512DCB0F1804F26D040F28B
:102360000042C4F200021FE044F2FF32C4F2010254
:1023700090420FDC604519D044F2000212E040F6B2
:102380000002C4F20002904210D040F60042C4F2B3
:10239000000209E044F60002C4F20102904205D0B6
:1023A00044F20042C4F20102904203D1CA6823F40D
:1023B0004073134323F080024B69D1F800E08C682E
:1023C0001A4360450260C462C0F828E002D109697E
:1023D000CCF830100121416110BD0000D0F808C0D8
:1023E00011432CF47F4C41EA032141EA0C01816046
:1023F00070470000826822F07002114341F007012B
:1024000081607047D0F820C0036A23F001030362A3
:10241000836923F0F00343EA02122CF00A03194304
:102420008261016270470000036A23F010030362B7
:102430008369D0F820C023F4704343EA02322CF0C1
:10244000A00343EA011182610162704710B5D0F820
:10245000BC323BB38E4601EB810100EB810151F8A8
:10246000184F64B1D0F8C4C2CEEBCE020CEB82029E
:10247000D2F844C0B4FBFCF202FB1C42A2B100241F
:10248000C3F81442D0F8C002D0F810C0BCF1000F5D
:1024900006D0D3F8080203F504717246E047002421
:1024A000204610BD032010BD00240C6071460022A0
:1024B000002300F03FFD204610BD0000B0B5D0F86D
:1024C000BC527DB1044600F015FCD4F8C02205F5DD
:1024D0000371D368D5F80422C5F80C02104698475A
:1024E0000020B0BD0320B0BDB0B58121044600F08E
:1024F00061FB002520460121258700F05BFB20467B
:102500008221A4F8785100F055FBD4F8BC02E564B0
:1025100048B1D4F8C00240688047D4F8BC0200F04B
:10252000DDFEC4F8BC520020B0BD000010B5D0F8EC
:10253000BC4284B1D0F8C01279B194F80002FF28EF
:102540000BD08B6894F8012221469847FF2084F82D
:102550000002002010BD032010BD002010BD0000AF
:10256000014640F2E0000A22C2F200000A807047F1
:10257000014640F258004322C2F200000A80704730
:10258000014640F29C004322C2F200000A807047DC
:10259000014640F2EC004322C2F200000A8070477C
:1025A000F0B581B004464FF4077000F099FEE0B337
:1025B0000546C4F8BC02207C4026002808BF4FF422
:1025C0000076204681210222334600F001FC0127DB
:1025D0002046012102223346278700F0F9FB102014
:1025E000A4F84E002046822103220823A4F8787123
:1025F00000F0EEFBD4F8C002A4F84C7000688047ED
:102600000020C5F81402C5F81802207CD5F8042271
:10261000002820464FF001010CBF4FF40073402307
:1026200000F0E2FB002001B0F0BD0020C4F8BC02C5
:10263000022001B0F0BD000080B5D0F8BC1271B12D
:1026400090F810C0D1F8042240230121BCF1000F02
:1026500008BF4FF4007300F0C7FB002080BD0320CB
:1026600080BD000000290EBF0320C0F8C01200206A
:1026700070470000D0F8BC0200280EBF0320C0F84D
:102680000412002070470000D0F8BC0200280FBFE1
:102690000320C0F80812C0F8102200207047000084
:1026A00070B582B0D0F8BC62044600208DF80700F7
:1026B000ADF80400B6B108780D4610F0600113D0F3
:1026C000202928D1EA88002A2BD0000632D4687845
:1026D000314686F80002204686F8012200F0B8F85C
:1026E000002660E003265EE068780B2844D80026C8
:1026F000DFE800F006594242424242424242303C48
:1027000094F89C0203283DD101A92046022200F042
:10271000B9F8002647E02046294600F08FF8032646
:1027200041E0D4F8C0022946836868780022002678
:10273000984738E0D4F8C0023146836868789847F3
:10274000EA8820463146072A28BF072200F09AF877
:10275000002628E094F89C02032819D10DF1070106
:102760002046012200F08EF800261CE094F89C021E
:10277000032813D1002616E02046294600F05EF813
:10278000032610E02046294600F058F803260AE008
:102790002046294600F052F8032604E02046294648
:1027A00000F04CF80326304602B070BD80B5D0F87A
:1027B000BC223AB1D2F8141200294FF0010103D023
:1027C000084680BD032080BDC2F81412D2F8103232
:1027D000D2F808228121C36200F0ACFB0021084638
:1027E00080BD000080B5D0F8B8220AB15268904789
:1027F000002080BD80B590F89C22013A022A09D8B9
:102800004988012918BF80BD0021C0F8A41200F03A
:1028100047F880BD00F012F880BD000080B5134677
:102820000A46002100F0E0FA002080BD80B5134682
:102830000A46002100F07EFB002080BD10B58021FB
:10284000044600F05DFB2046002100F059FB10BD5E
:1028500080B513460A460321C0F894120021C0E94E
:10286000563300F0C1FA002080BD000080B505217C
:10287000C0F8941200210022002300F0B5FA0020D5
:1028800080BD000080B513460A460221C0F89412AC
:102890000021C0E9063300F04DFB002080BD0000A0
:1028A00080B50421C0F8941200210022002300F01A
:1028B00041FB002080BD000010B540F2F814C2F2C8
:1028C00000040A4602A0214600F024F9204610BD6B
:1028D00043444320436F6E666967000040F2301046
:1028E0001222C2F200000A807047000010B540F2C8
:1028F000F814C2F200040A4602A0214600F00AF9C8
:10290000204610BD43444320496E7465726661637E
:102910006500000040F258100422C2F200000A8054
:102920007047000010B540F2F814C2F200040A46E5
:1029300002A0214600F0EEF8204610BD53544D6928
:1029400063726F656C656374726F6E6963730000A8
:1029500010B540F2F814C2F200040A4602A0214663
:1029600000F0D8F8204610BD504C432D53657276C8
:102970006F00000080B51A200880FDF763FE40F26A
:102980005C10C2F2000080BD80B5C988012910D159
:1029900090F89C124A1E022A04D20022014641F8F5
:1029A000082F02E0032904D1011D0122FFF76AFF6D
:1029B00080BDFFF743FF80BDB0B582B004464888B4
:1029C0000D464FF0FF3101EB102100220629ADF832
:1029D000062061D8DFE801F00414086060212A00B5
:1029E000D4F8B402026841E0C0B2052854D8DFE848
:1029F00000F003292D313539D4F8B402426834E0AF
:102A0000217CD4F8B80200290CBF816AC16A0DF19B
:102A1000060088470146022012E0207CE0BBD4F883
:102A2000B802416B0DF10600884723E0207C98BB7B
:102A3000D4F8B802016B0DF1060088470146072063
:102A4000487018E0D4F8B40282680EE0D4F8B402FA
:102A5000C2680AE0D4F8B402026906E0D4F8B4020D
:102A6000426902E0D4F8B4028269AAB1207C0DF177
:102A70000601904701460120A8B1EA88AAB1BDF835
:102A80000600B8B1904238BF02462046ADF8062095
:102A9000FFF7F8FE02B0B0BD2046FFF7CFFE0021E1
:102AA00000200028E9D102B0B0BD2046FFF7F8FEB3
:102AB00002B0B0BD2046FFF7C1FE02B0B0BD0000BD
:102AC000017849B1411E00208A780130002A01F1C5
:102AD0000101F9D1C0B270470020C0B270470000B8
:102AE00080B590F89C22013A022A0FD8C9880229A1
:102AF0000CD1D0F8A4120322002908BF01220146FC
:102B000041F80C2F0222FFF7BDFE80BDFFF796FEB5
:102B100080BD000070B5F0B1164605460C46FFF7C3
:102B2000CFFF022101EB4000308020700320607055
:102B30002878002808BF70BD691E0222002300BF4C
:102B4000D6B2A05546F001002354887802320028FE
:102B500001F10101F4D170BD032884BF0320704747
:102B600040F20031C000C0F2013121FA00F0C0B2E1
:102B700070470000002804BF0320704780B5002381
:102B8000C0F8B832C0F8C0320029C0F8CC3218BF43
:102B9000C0F8B412012180F89C12027000F0B0F865
:102BA00080BD000080B5D0F8C402FDF7E3FFFFF759
:102BB000D3FF80BD80B5D0F8C402FDF7B5FFFFF7A5
:102BC000CBFF80BDB0B5044671B194F89C020328D8
:102BD00049D1D4F8B8024269002A44D0204690472F
:102BE000002808BF0020B0BDD4F89402022833D1D9
:102BF000D4E9071081420DD90B1A204611461A4616
:102C0000E361FFF713FE204600210022002300F0BD
:102C1000EBF821E00FD1A16981420CD3D4F89802DE
:102C2000814208D22046002100220025FFF7FEFD48
:102C3000C4F89852E7E794F89C02032805D1D4F829
:102C4000B802C16809B1204688472046802100F0BB
:102C500057F92046FFF70AFE94F8A002012804BFA6
:102C6000002084F8A0020020B0BD000010B504468A
:102C700069B194F89C0203281CD1D4F8B802826987
:102C8000C2B120469047002808BF002010BDD4F8EC
:102C9000940203280ED1D4E9570398420CD9C01AE4
:102CA000C4F85C01984238BF0346204611461A46D4
:102CB000FFF7B4FD002010BD94F89C02032805D155
:102CC000D4F8B802016909B1204688472046FFF7C9
:102CD000E7FD002010BD00000020704780B50121F5
:102CE00080F89C12D0F8B81211B14A680179904767
:102CF000002080BD80B5D0F8C402FDF76DFF80BD17
:102D000010B5017809B1002010BD41F2C001C2F236
:102D10000001C1F80404C0F8C4124FF0A04004221E
:102D2000C1E90002022000220123C1E90302C1E936
:102D300006030846C1E90822C1E90B22FEF742FA60
:102D4000002818BFFDF778FC41F2C004C2F200046D
:102D500020468021FDF796FE204600214022FDF707
:102D600095FE204601218022FDF790FE002010BD37
:102D7000D0F8C40201F07F02C2EBC20200EB820075
:102D800000F13E02090658BF00F5FF721078704747
:102D900080B5D0F8B82242B190F89C32032B02D112
:102DA000126A02B19047002080BD032080BD000060
:102DB00080B5D0F8B82242B190F89C32032B02D1F2
:102DC000526A02B19047002080BD032080BD000000
:102DD00080B59446D0F8C4021A466346FDF706FF54
:102DE000FFF7BAFE80BD000080B5D0F8C402FDF741
:102DF0002DFFFFF7B1FE80BDF0B581B00446012084
:102E0000002184F89C02C4F89412D4F8B8026160DE
:102E1000C4F8A412E8B1D4F8BC1221B1426812B1CE
:102E20002046002190472046002100224023002513
:102E30004026FFF7CDFF01272046802100224023B6
:102E4000A4F86471C4F86061FFF7C2FFA78426622A
:102E500000E00325284601B0F0BD000090F89C1268
:102E6000042904BF90F89D1280F89C12002070473E
:102E700080B5D0F8B81241B190F89C22032A02D153
:102E8000C96901B18847002080BD032080BD0000D2
:102E9000024600201174704780B5D0F8C402FEF7D6
:102EA00095FAFFF759FE80BDB0B500F2AA25044699
:102EB000284600F047F80120C4F8940294F8AA02CA
:102EC000B4F8B02200F01F010229C4F8982207D0FC
:102ED00001290AD071B92046294600F0F9F8B0BDA1
:102EE0002046294600F02CF9B0BD2046294600F0C6
:102EF000C3F9B0BD00F08001204600F001F8B0BD7C
:102F000080B5D0F8C402FDF7CBFEFFF725FE80BDEB
:102F100080B5D0F8C402FEF777FAFFF71DFE80BD3A
:102F2000014690F89C02042281F89D02002081F85D
:102F30009C22704780B5D0F8C402FDF7E9FEFFF788
:102F40000BFE80BDB0B50C4609780546017060786F
:102F50006870A01CFFF752F96880201DFFF74EF93A
:102F6000A880A01DFFF74AF9E880B0BD10B582B077
:102F700004460020ADF8060059B1CA6AC4F8B81278
:102F800022B10DF106009047C4F8CC02002002B037
:102F900010BD032002B010BDB0B58A88044642B906
:102FA000C88830B948887F2803D894F89C12032930
:102FB00003D12046FFF742FCB0BD00F07F0520465C
:102FC000294684F89E52FFF767FF2046FFF768FC0A
:102FD000002D14BF0220012084F89C02B0BD000027
:102FE00080B5D0F8B82212B11268904780BD032096
:102FF00080BD0000B0B50446488840F2F415C2F226
:10300000000510F0FE0F287004D02046FFF716FCD4
:103010000320B0BD94F89C22C1B2032A0DD0022A2D
:1030200023D191B320466160FFF7DAFF054688B3EC
:103030002046FFF703FC2846B0BDF9B1606888421E
:1030400023D0C1B22046FFF7CDFB2978204661602E
:10305000FFF7C6FF054628B32046FFF7EFFB2179AF
:103060002046FFF7BFFB022018E02046FFF7E6FBF3
:1030700029782046FFF7B6FB0320B0BD022084F874
:103080009C0220466160FFF7ADFB2046FFF708FC7D
:103090000020B0BD2046FFF703FC032084F89C020B
:1030A0002846B0BD2046FFF7FBFB2846B0BD000018
:1030B00080B54988012918BF80BD0121C0F8A4123C
:1030C000FFF7EEFB80BD000080B5FFF721FF80BD5C
:1030D00080B50A7812F0600208D0402A01D0202A78
:1030E00012D1D0F8B8229268904780BD4A78092A58
:1030F0000AD8DFE802F0050D091109152009191D8C
:10310000FFF7EEFC002080BDFFF798FB002080BD9C
:10311000FFF770FB002080BDFFF7CAFF002080BDD5
:10312000FFF73AFF002080BDFFF72EFC002080BD96
:10313000FFF760FF80BDFFF73FFC002080BD00006F
:10314000B0B50D460978044611F060010AD0402957
:1031500001D0202970D1D4F8B802294682682046CF
:103160009047B0BD68782979B0B1012833D00328E1
:1031700062D194F89C02032831D1688840B941F0AB
:103180008000802804D0E88810B92046FFF7B8FEF8
:103190002046FFF785FB52E094F89C0203282CD0D0
:1031A000022849D141F08000802845D101F07F00FC
:1031B00000EB800004EB800000F11402090658BF08
:1031C00000F5AA7200251560204611460222FFF77D
:1031D00059FB2846B0BD94F89C02032832D002283F
:1031E0002AD141F08000802826D02046FFF788FEB3
:1031F00020468021FFF784FE21E001F00F0202EB60
:10320000820211F0800004EB82020CBFB2F864214C
:10321000928C8AB101F07F0202EB820204EB8202FF
:1032200002F11405002841F0800008BF02F5AA75DC
:10323000802813D1002017E02046FFF7FFFA002571
:103240002846B0BD68880028F9D1480602D020463B
:10325000FFF7A8FC2046FFF723FB7CE72046FFF79B
:1032600087FD0028E6D0012028602046294602225A
:10327000FFF708FBE3E7000070B50D460978044648
:1032800011F0600118BF40290ED194F89C0201385A
:10329000022803D8A88810F0FE0F0DD02046FFF7B3
:1032A000CDFA0026304670BD2029EED02046FFF72B
:1032B000C5FA0026304670BDD4F8B80229468268A7
:1032C0002046904706460028F4D1E8880028F1D12E
:1032D0002046FFF7E5FA304670BD00007047000059
:1032E00040F2F830C2F200007047000080B54B7821
:1032F0000A78012B02F00F0324D14FF0010CD0F813
:103300001CE80CFA03F343EA0E03C0F81C3800F57E
:10331000106C53015CF80300000431D4886891F804
:1033200003E06FF3DF2053F80C1040EA82500843AB
:1033300040EA8E4040F0805040F4004043F80C00DA
:10334000002080BD4FF4803CD0F81CE80CFA03F359
:1033500043EA0E03C0F81C3800F530605201835870
:103360001B040DD48B6891F803C011586FF3DF2351
:10337000194341EA8C4141F0805141F40041115020
:10338000002080BD0146D0F8000940F2FF72904352
:10339000C1F80009D1F8040840F480720020C1F897
:1033A0000428704770B50699049D0129044619D177
:1033B000A06B4FF6BF7120F48030A063E068CFF6B9
:1033C000BD710840E060E0680D9920F440100129CB
:1033D000E06003D1E06840F48010E060204600F037
:1033E0001DF80FE0E0680A9E40F04000E0602046D3
:1033F00000F014F8A16B002E14BF21F4803141F4C9
:103400008031A163012D18BF70BDA16841F0060194
:10341000A160A16841F02001A16070BD81B040F6BB
:103420004051C0F203010022009200BF009A013215
:103430008A42009215D80269B2F1FF3FF6DC002201
:103440000092026942F00102026100BF009A01325B
:103450008A42009205D80269D207F7D1002001B054
:103460007047032001B0704710B54B7891F800E029
:1034700047F6000C012BCEF6334C00EB4E1108D171
:10348000D1F80039B3F1FF3F01F510630DDD0124E0
:103490001FE0D1F8002B01F53063B2F1FF3F0CF1D2
:1034A000707C0CDD4FF4803413E01968012441F086
:1034B00000611960196841F08041196009E01968DC
:1034C0004FF4803441F000611960196841F0804187
:1034D00019600EF00F02D0F83C1804FA02F2914382
:1034E000C0F83C18D0F81C189143C0F81C18186894
:1034F00000EA0C010020196010BD00000146D0F860
:10350000000E20F00300C1F8000ED1F8040820F0EE
:1035100002020020C1F80428704700000146D0F8DC
:10352000000E20F00300C1F8000ED1F8040840F0AE
:1035300002020020C1F80428704700002DE9F04F76
:1035400081B00446DDF844A00C98DDF828900D46C3
:103550004121002244F8212001315029FAD1BAF149
:10356000000F07D0A16B21F40011A163A16B41F4FE
:10357000002110E0D4F8041841F00201C4F8041846
:10358000A16B41F40011A163A16B21F40021A1639F
:10359000A16B21F480214FF00008A163C4F8008ED4
:1035A000D4F80018002BC4F8001818BF0123012814
:1035B00018BF03232046194600F032FB2046102195
:1035C00000F06AFA8346204600F04EFAC4F81088EC
:1035D000C4F81488C4F81C8885B304F510614FF64C
:1035E0007F3200230E684FF09047002B08BF4FF04A
:1035F000006707EAE67701330F60C1F810808A6040
:103600009D4201F12001EDD104F530614FF0000C35
:103610004FF67F33002600BF0F684FF09042002E18
:1036200008BF4FF0006202EAE77201360A60C1F893
:1036300010C08B60B54201F12001EDD1D4F8101813
:10364000B9F1000F21F48071C4F810186FF08041B7
:10365000C4F81880616103D1A16941F01001A16132
:10366000A16943F60002C8F23C0211430D9AA16120
:103670001AB1A16941F00801A161BAF1010F05D1A8
:10368000A16941F0804141F00401A16150EA0B00C1
:1036900018BF012001B0BDE8F08F0000014680682E
:1036A00020F0010200208A6070470000F0B54B78DE
:1036B00091F800C0012B23D14E6900EB4C1E002570
:1036C0004FF6FF74DEF81079CFF6F875CEF20704E6
:1036D000002E0EF510633ED03D401D611D69254052
:1036E0001D618D6804F10054AE4288BF4D611D69B3
:1036F00045F400251D614D691E692C40344332E0BC
:1037000000EB4C13D3F8100B6FF31200C3F8100B3F
:10371000D3F8100B6FF3DC40C3F8100B4F6903F5BF
:103720003063002F1CBF8F684F611F694FF6FF7019
:1037300047F400271F61CEF207008F6800F10050A8
:103740001E6938403043012A186114D1C868002826
:1037500018BF58610FE03C401C611C6944F4002410
:103760001C611C692C40012A1C610BD108690028CE
:1037700018BFCEF814094FF00441186808431860C8
:103780000020F0BDDEF8002942F00442CEF8002906
:1037900049690029F4D00CF00F01012202FA01F16D
:1037A00000F63403E9E70000D0F840C043F20B0311
:1037B000C4F654739C4503D3D0F8003B002B1ED4B1
:1037C0000023C0F8103BD0F8103B012943F400233C
:1037D000C0F8103BD0F8103B43F01803C0F8103B82
:1037E000D0F8103B43F0C043C0F8103B07D1C0F8FD
:1037F000142BD0F8001B41F08021C0F8001B0020E2
:10380000704700004B780A78012B11D100F5106049
:103810005201835823F400138350C97801F0FE014C
:10382000022915D1115841F08051115000207047E4
:1038300000F530605201835823F400138350C97897
:1038400001F0FE01022903D1115841F080511150BD
:10385000002070474A780978012A0ED100EB411206
:10386000D2F80009002902F5106114D0002812D402
:10387000086820F0804008600DE000EB4112D2F8AB
:10388000000B002902F5306105D0002803D4086838
:1038900020F080400860086840F4001200200A60B0
:1038A00070470000F0B581B04B7894460A78012B40
:1038B00030D1D1F814E000EB4213D3F81059BEF127
:1038C000000F03F510644AD06FF3120525612569D6
:1038D0006FF3DC4525618D6827690EEB0506013E17
:1038E000B6FBF5F50026C1F6F87606EAC5453D4378
:1038F0002561754626696FF3DF4535432561CD782F
:10390000012D37D1256925F0C0452561256945F090
:1039100000552EE000EB4212D2F8103B6FF3120379
:10392000C2F8103BD2F8103B6FF3DC43C2F8103BF7
:103930004D698B68002D02F5306257D0EF18013FBA
:10394000B7FBF3F70026C1F6F87606EAC746156915
:10395000BFB27B432E436FF3DF4316614DE06FF33D
:10396000DC452561256945F40025256125696FF34E
:1039700012052561BCF1010F1BD10A69002A18BF8D
:10398000C3F81429C97801290CD1D0F80808D3F854
:103990000019C0054FF0805058BF4FF00050084349
:1039A000C3F80009D3F8000940F00440C3F8000947
:1039B00040E000F5106354011D5945F004451D51C8
:1039C000CD78012D39D1D0F80858E658ED054FF0E3
:1039D000805558BF4FF000553543E550C9681FFA70
:1039E0008EF3CDF800C000F0AFF923E017696FF354
:1039F000DF433B4313614FF400231769BCF1010F10
:103A000043EA0703136103D1CB68002B18BF53614E
:103A1000C97801290AD1D0F808081168C0054FF00B
:103A2000805058BF4FF0005008431060106840F0BD
:103A300004401060002001B0F0BDBEF1000FF9D0CD
:103A400002F00F010122D0F8343802FA01F11943D3
:103A5000C0F83418EEE700000146806840F001022B
:103A600000208A607047000081B000210091102181
:103A7000016140F64051C0F2030100BF009A0132DB
:103A80008A42009205D80269D206F7D4002001B01C
:103A90007047032001B0704781B0890100222031B6
:103AA0000092016140F64051C0F20301009A0132D8
:103AB0008A42009205D802699206F7D4002001B02C
:103AC0007047032001B07047D0F8080810F0060FC7
:103AD00004BF0020704780074FF0020058BF0F203E
:103AE00070470000406900F001007047D0F81818D6
:103AF000D0F81C08084080B270470000D0F81818B1
:103B0000D0F81C080840000C70470000D0F810C81E
:103B1000D0F8343801F00F0223FA02F2D20100EBA0
:103B20004110D2B2D0F8080942EA0C0108407047AF
:103B300000EB4111D1F8081BD0F814080840704779
:103B4000416980690840704780B50023B3EB920F4C
:103B500002F003030BD0920804394FF4805C00BFDD
:103B600050F80CE0013A41F804EFF9D1043173B197
:103B70004FF4805250F802C0002200BF2CFA02F02D
:103B8000013B01F8010B180402F10802F6D10846C6
:103B900080BD000070B50446C06820F0C040E06001
:103BA00099B1012928D1E068002540F00050E0607B
:103BB00001202E46FCF760FD20460135FFF792FFFD
:103BC000302E13D80128F3D110E0E068002540F032
:103BD0008040E06001202E46FCF74EFD2046013576
:103BE000FFF780FF302E01D80028F3D1A5F1320075
:103BF000B0FA80F0400970BD012070BD0246D0F8D7
:103C0000000801F07F0120F4FE60C2F80008D2F83D
:103C1000000840EA01110020C2F8001870470000B7
:103C20000246D0F8000801430020C2F8001870478F
:103C3000022A02460DD145F24030CFF6277043F2FA
:103C400000530844C0F20C0398420DD24FF4705058
:103C500001E04FF41050D16821F47051D160D16867
:103C600001430020D160704741F64060CFF61B70E1
:103C700044F240230844C0F20F03984202D24FF4AA
:103C80006050E8E7A1F5740044F68073A0F5105089
:103C9000C0F21203984202D24FF45050DBE7A1F178
:103CA00083704DF22063A0F5E740C0F21303984201
:103CB00002D24FF44050CEE74BF26060CFF6E560A1
:103CC0004EF260330844C0F21603984202D24FF419
:103CD0003050C0E74DF20030CFF6CE6047F240736F
:103CE0000844C0F21B03984202D24FF42050B2E7BE
:103CF00045F6C030CFF6B36049F2C0130844C0F2B5
:103D00002103984202D24FF41050A4E7A1F1B770FA
:103D100047F22053A0F55850C0F23803984202D21F
:103D20004FF4005097E745F2E040CFF6596049F66E
:103D3000E0430144C0F241034FF4C050994238BF00
:103D40004FF4E05087E70000DDF800C0BCF1000F41
:103D500012D103F1030C0023B3EB9C0F0CD04FEAFC
:103D60009C0300F5805C1203043900BF51F8040F76
:103D7000013B42F80C00F9D100207047FEE700003B
:103D80004EF28420CEF200004FF480710160704743
:103D9000002848BF704700F01F01012202FA01F11C
:103DA0004EF280124009CEF2000242F82010BFF31A
:103DB0004F8FBFF36F8F7047002848BF704700F0E8
:103DC0001F01012202FA01F14EF200124009CEF267
:103DD000000242F8201070474EF60C50CEF2000060
:103DE0000068C0F3022070474EF6145300F00F0233
:103DF000CEF2000309011A4400F16043B0F1FF3F25
:103E0000C8BF03F564421170704700004EF60C51B4
:103E1000CEF200010A684FF6FF031A4060F30A224F
:103E200042F0806040F0FD700860704740F21C0175
:103E3000C2F2000109684DF68362C4F21B32A1FB95
:103E4000021241F20401920CCEF200015043002212
:103E50000A6000BF0A688242FCD37047FCF794FDF9
:103E6000FEF7EAF9FDF7CAFFFEF774F8FEF73AF835
:103E7000FCF7C4FB40F2761540F2186741F2115886
:103E800040F2E014C2F200050026C2F20007C2F2BE
:103E90000008C2F2000400BF28202E70FCF7D4FDF9
:103EA0003878FF2808D198F80000012120702046BA
:103EB000FCF78AFB3E7000BF28780528ECD03878E4
:103EC0000028E9D0FF28E7D0282000210022FCF7B5
:103ED000C3FD2820FCF7BCFD00F030F841F288302B
:103EE000FFF7A4FFBB78FA783979787900F078F891
:103EF000E2E7000080B541F21151C2F200010A78F8
:103F000040F2E011C2F200010A70020A0A71020CCA
:103F100040F6EE53CA7040F6EF52C2F20003C2F20E
:103F200000021B7812784871000E4B7088708A71FD
:103F300008460721FCF748FB80BD000041F2115004
:103F4000C2F20000007858B102281AD0012836D1F8
:103F500040F21860C2F200004178012917D108E050
:103F600040F21860C2F200004178D1B1012918BFB7
:103F7000704740F21841C4F202010A6842F0100290
:103F800025E040F21860C2F200004178C1B140F271
:103F90007611C2F2000105220A70002101608180C1
:103FA000704740F21841C4F202010A6842F48012DC
:103FB0000A60407840F6EE51C2F200010870704786
:103FC00040F21841C4F202010A6842F480120A6009
:103FD000407840F6EE51C2F20001087070470000D0
:103FE0002DE9F04740F21845C4F2020540EA0120ED
:103FF000296840EA024041F040012960296840EA0E
:10400000036841F480602860C820FCF735FB40F26B
:10401000761A40F21869C2F2000AB8F1000FC2F233
:10402000000929D09AF80000052825D099F8000049
:1040300010B341F21456C2F200066427444600BF92
:104040003060286840F02000286030687843FFF72F
:10405000EDFE286840F40010286030687843FFF7D0
:10406000E5FE013C09D09AF80000052805D099F832
:1040700000000028E4D100E04446C820FCF7FCFA28
:10408000286840F0806028609AF80000052805D074
:1040900041F21150C2F20000002101704FF47A7019
:1040A000A8EB0404FFF7C2FE286840F480002860F3
:1040B0002046FFF71FFF0020C9F80000BDE8F08789
:1040C000F1EE100A4FF6FF71C0F2C03120EA010094
:1040D00040F04070E1EE100A704700000000000060
:1040E000000001020304060708090000104100084F
:1040F0000000002080010000D0010008D841000825
:1041000080010020A01900002C020008000000001F
:1041100013DD28140815291B0825041A51041A75E3
:10412000041AB9141AED04111324F413A125140868
:10413000E9241C08A12610311A2D101A4D101ABDA1
:1041400004C11A81181A71041A91041A610414091D
:10415000024313020125C03209041B01020B13059F
:10416000241610010524011009010424020205246B
:104170000617010705820308151009040133020A16
:104180002E0705010240072A810711093744113A19
:1041900002441907112B0A0606112B4001502A0769
:1041A000500A3B04941A12171302021E4083044063
:1041B000574D1B0203591369051B0865041A610456
:1041C0001A95041AC5040718040309041A03740194
:0841D0000110000000000000D6
:040000050800019559
:00000001FF
