:020000040800F2
:10000000E048002089020008AD1F0008A51F000875
:10001000A91F0008350D0008153400080000000075
:100020000000000000000000000000002120000887
:10003000E50E000800000000B11F00087D30000838
:10004000A3020008A3020008A3020008A3020008FC
:10005000A3020008A3020008A3020008A3020008EC
:10006000A3020008A3020008A3020008A3020008DC
:10007000A3020008A3020008A3020008A3020008CC
:10008000A3020008A3020008A30200080000000069
:10009000000000000000000000000000A3020008B3
:1000A000C1300008ED300008CD300008A302000880
:1000B000F9300008A3020008A3020008A302000808
:1000C000A3020008A3020008A3020008A30200087C
:1000D000A3020008A3020008A30200080000000019
:1000E000E90E0008A3020008A302000800000000B7
:1000F000000000000000000000000000A302000853
:1001000000000000A3020008A3020008A3020008E8
:1001100000000000000000000000000000000000DF
:10012000A3020008A3020008390D0008A30200087A
:10013000A302000800000000000000000000000012
:10014000000000000000000000000000A302000802
:10015000A3020008A3020008A3020008A3020008EB
:10016000A3020008A3020008000000000000000035
:10017000000000000000000000000000000000007F
:1001800000000000A30200080000000000000000C2
:10019000A302000800F002F800F067F80AA090E857
:1001A000000C82448344AAF10107DA4501D100F032
:1001B0005CF8AFF2090EBAE80F0013F0010F18BF98
:1001C000FB1A43F001031847F44F000014500000DD
:1001D0000A444FF0000C10F8013B13F0070408BF6D
:1001E00010F8014B1D1108BF10F8015B641E05D00B
:1001F00010F8016B641E01F8016BF9D113F0080FC0
:100200001EBF10F8014BAD1C0C1B09D16D1E58BF51
:1002100001F801CBFAD505E014F8016B01F8016B88
:100220006D1EF9D59142D6D37047000000230024FB
:1002300000250026103A28BF78C1FBD8520728BFF6
:1002400030C148BF0B607047002070471FB504F0F5
:10025000D9FE00F065FC04000020002104F0BCFE83
:10026000401C60601FBD10B510BD00F01DFC1146A4
:10027000FFF7ECFF03F0DCF900F044FC03B4FFF7F8
:10028000F2FF03BC00F08EFC094880470948004794
:10029000FEE7FEE7FEE7FEE7FEE7FEE7FEE7FEE736
:1002A000FEE7FEE704480549054A064B7047000093
:1002B000AD30000895010008E0420020E048002031
:1002C000E0440020E04400200FB41CB5074B06AA10
:1002D0007B4469460090059800F0C5F90020694606
:1002E00000F0D4F91CBC5DF814FB0000B903000059
:1002F0002DE9F0410E460446002020622046E168C8
:10030000884730B3252805D0D4E901219047206AD9
:10031000401CF2E7E168204600278847050018D016
:10032000A5F14100192802D820354FF40067324664
:10033000294620462760FFF787FF40B1012804D0F7
:10034000F61D26F007060836D8E7361DD6E72846FC
:10035000DAE7206ABDE8F0810FB400B58DB010A9CE
:10036000099000910B904FF0FF300A9000200C9004
:10037000064878440690064878446A4607900F99E4
:1003800009A800F09DF90DB05DF814FB6B030000A7
:10039000830300002DE9FF5F1D464FF0FF3B9146B0
:1003A0004FF000085F46D5E90146A96901987F1C16
:1003B0008847296A824688470028F6D1BAF1FF3F6C
:1003C0000CD0002E24F4C06419DD600614D5BAF1F7
:1003D0002B0F09D0BAF12D0F0ED103E0584604B00F
:1003E000BDE8F09F44F48064A96901987F1C8847A8
:1003F000761E8246002E02DDBAF1300F03D0B9F12D
:10040000000F26D032E0A969761E01987F1C44F4C3
:1004100000748847002E824605DDBAF1780F06D0B9
:10042000BAF1580F03D0B9F1000F10D01EE0B9F1A6
:10043000000F02D0B9F1100F18D1A969761E0198EA
:100440007F1C24F4007488478246102002E00820B4
:1004500000E00A20814609E0A96908FB0908761E28
:1004600001987F1C44F4007488478246002E05DD05
:100470004946504600F00FF90028EDDAE969019885
:100480008847A00502D46FF00100A8E7E00725D156
:10049000600613D5600502D5C8F1000000E04046B3
:1004A00029680A1D2A600968220501D5087015E02F
:1004B000220701D5088011E008600FE02868011DBF
:1004C00029600068210502D580F8008006E0210738
:1004D00002D5A0F8008001E0C0F8008038467EE731
:1004E0002DE9FF5F4FF00008994614464646916992
:1004F000D2E901A7DDF838B001988847054659EAE6
:100500000B0005D009E0A1690198761C88470546D3
:10051000216A284688470028F5D1681C03D05FEA85
:10052000CA7005D015E04FF0FF3004B0BDE8F09F71
:100530002068011D2160D0F800800AE05FEACA70DF
:1005400001D108F8015BA169761C01987F1E8847DC
:100550000546002F1ADD681C18D0B9F1000F0DD028
:10056000E81705EBD060421120F01F0059F8221067
:100570002A1A012090400142E0D107E0BBF1000FB0
:10058000DCD12846216A88470028D7D0E169019844
:100590008847BBF1000F07D1002E05DD5FEACA7066
:1005A00002D1002188F80010A068B84203DDBBF139
:1005B000000F03D017B16FF00100B6E73046B4E783
:1005C00040EA010310B59B070FD1042A0DD310C8D0
:1005D00008C9121F9C42F8D020BA19BA884201D922
:1005E000012010BD4FF0FF3010BD1AB1D30703D06A
:1005F000521C07E0002010BD10F8013B11F8014B20
:100600001B1B07D110F8013B11F8014B1B1B01D13B
:10061000921EF1D1184610BD10B5431C02E010F82F
:10062000011B71B18107FAD14FF0013202C88C1A57
:100630008C4314EAC211F9D0C01A0A0603D0C01EB6
:1006400010BDC01A10BD0A0401D0801E10BD0902E1
:10065000FCD0401E10BD70477047704701694A1CAE
:1006600002610878704700B58FB0CDE901310021F3
:10067000059105497944CDE9031011466846FFF715
:1006800037FE0FB000BD0000E5FFFFFF0A6802F86B
:10069000010B0A6070473A2800D2303820F020025F
:1006A000412A01D3A2F13700884201D34FF0FF3035
:1006B00070470000026811441378016018467047C3
:1006C000D16005497944516104497944116200219E
:1006D0001161114600F02EB8EDFFFFFF530000003E
:1006E000426842B1016811F8013B23B1521EC0E9D2
:1006F0000012184670470121C160881E7047426889
:100700005AB1C368016843B983688B4205D0491E5A
:10071000521CC0E90012002070474FF0FF307047B4
:1007200010B5044600F0E6F90068005D00F0010035
:1007300010BD00002DE9F34F4FF0000A0C4656465D
:100740008DB001200C9001F10C000B9062690B98A8
:1007500001219047051E2DD0252D2CD0216A8847D8
:10076000C0B162690B9801219047216A884700282F
:10077000F7D16269411E0B98904700E0761CA16991
:100780000D988847216A88470028F7D1E1690D98BC
:100790008847DBE7A1690D988847A842074601D141
:1007A000761CD3E7E1690D9888477F1C02D1BAF126
:1007B000000F6FD06BE162690B9800273D46394608
:1007C00090472A2804D162690B980121904701259E
:1007D000DFF8D08262690B9801219047A0F13001C7
:1007E0000A290AD24745E5DC07EB870100EB410700
:1007F000303FDFD445F01005ECE7E90601D46FF097
:1008000000476C280AD04C2814D0682815D06A28D4
:100810000DD074281CD07A281AD01DE062690B987C
:10082000012190476C2802D045F0040514E045F002
:1008300002050DE045F020050AE062690B980121F0
:100840009047682802D045F0080505E045F40065AA
:1008500062690B9801219047C4E9015765283DD092
:1008600019DC58287AD00CDC452837D004DC252840
:1008700026D041289ED131E046282FD0472899D153
:100880002CE05B2877D0612828D063287CD06428AE
:1008900023D15AE0F6E06F2848D008DC66281DD046
:1008A00067281BD0692821D06E2816D127E0702830
:1008B00045D0732868D0752847D078280DD14DE0F1
:1008C000A1690D988847252805463FF469AFE1697D
:1008D0000D9888476D1C3FF46AAFD8E00D99234608
:1008E0006A466FF00100AFF30080C5E045F04000BC
:1008F00023464FF000026060A80736D43EE0E807C8
:100900007FF447AF2068011D21600068290501D5EB
:1009100006701BE7290701D5068017E7A90703D54D
:10092000F117C0E9006111E706600FE745F04000EC
:1009300023464FF008026060A80716D41EE040F678
:100940000E0125EA0100606016E045F040002346F4
:100950004FF00A026060A80707D40FE045F040009E
:100960006060A80708D5234610220D996FF001009A
:10097000AFF3008080E007E0102223460D996FF06E
:100980000100FFF707FD77E04FF0000963284F46AD
:10099000C8464B46CB4602D05B2806D038E0E80676
:1009A00001D40120A060012732E06269D4F80CB0C4
:1009B0000B98012190475E2807D14FF00109494665
:1009C0006269D4F80CB00B989047216939B90021BD
:1009D0000A4603AB43F82120491C0829FADBD8B3A7
:1009E000216949B308F1010862690B980121904718
:1009F0005D28F4D1B9F1000F09D0002003A951F806
:100A00002020D24341F82020401C0828F7DB03AB0C
:100A10002069002820794FEA40701ED05B462246AC
:100A2000CDF80080CDE901970D9900286FF0010005
:100A300020DAAFF300801FE0C11703AA00EBD161F9
:100A40004B1121F01F0102EB8302411A13680120B0
:100A5000884003431360C7E719E00D992246002838
:100A60006FF00100009702DAAFF3008004E0FFF7B7
:100A700037FD01E0AFF3008000280ADA401C06D100
:100A80000C9820B14FF0FF300FB0BDE8F08F50460A
:100A9000FAE7E90701D10AF1010A064400200C90A7
:100AA00054E60000CCCCCC0C754600F035F8AE46D0
:100AB00005006946534620F00700854618B020B56A
:100AC000FFF7F0FBBDE820404FF000064FF00007B5
:100AD0004FF000084FF0000BAC46ACE8C009ACE8A2
:100AE000C009ACE8C009ACE8C00921F007018D4697
:100AF0007047000010B500F013F8001D10BD00BFD6
:100B0000D944000010B50446AFF300802046BDE88C
:100B10001040FFF7B3BB000000487047700300208F
:100B2000004870479003002030B44FF0013C50F86B
:100B3000042B51F8043BCCFA52F4D51A20D1FCB95D
:100B400050F8042B51F8043BCCFA52F4D51A17D1C3
:100B5000B4B950F8042B51F8043BCCFA52F4D51A2E
:100B60000ED16CB950F8042B51F8043BCCFA52F476
:100B7000D51A05D1002CDAD030BC4FF000007047F8
:100B800029BAB1FA81F111F01801D1F120008440A5
:100B9000F2D1CA40CB4012F0FF0213F0FF0330BC89
:100BA000D01A704701491820ABBEFEE726000200AC
:100BB000704753EA020C00F069802DE9F04B4FF0CA
:100BC0000006002B1FBFB3FA83F503FA05F424FADD
:100BD00005F65E4012BF1643B2FA82F502FA05F43A
:100BE000C5F120051EBF22FA05FC44EA0C0420359D
:100BF00056EA044C4FEA144418BF641C4FF0000836
:100C00004FF00009904271EB030C39D3002919BF52
:100C1000B1FA81F701FA07F6B0FA80F700FA07F6A1
:100C2000C7F120071EBF20FA07FC46EA0C06203752
:100C3000B6FBF4FCA7EB0507103F07F01F0BCBF149
:100C400020062CFA06F60CFA0BFB44BFB34600262E
:100C5000202FA4BF5E464FF0000B5BEA060C08BFD6
:100C60004FF0010B19EB0B0948EB0608ABFB027CBC
:100C700006FB02CC0BFB03CCC01B71EB0C01C1E7E4
:100C80000B46024641464846BDE8F08B13B5084383
:100C900018BF4FF0FF300146AFF30080BDE81C40A5
:100CA00070474FF000020429C0F0128010F0030CCE
:100CB00000F01B80CCF1040CBCF1020F18BF00F84F
:100CC000012BA8BF20F8022BA1EB0C0100F00DB8FE
:100CD0005FEAC17C24BF00F8012B00F8012B48BF5C
:100CE00000F8012B70474FF0000200B51346944600
:100CF0009646203922BFA0E80C50A0E80C50B1F174
:100D00002001BFF4F7AF090728BFA0E80C5048BF87
:100D10000CC05DF804EB890028BF40F8042B08BF25
:100D2000704748BF20F8022B11F0804F18BF00F821
:100D3000012B7047FEE70000F0B581B00020009065
:100D400040F2040040F2BC44C2F20000C2F20004CF
:100D50000268D4E9166048F2B51337680821C1F675
:100D60004E3381403942A2FB03250CD02268136820
:100D70005B0708D5136823F004031360B160616D4D
:100D800041F00101616501218140394208D02268AA
:100D90005269120604D5B160616D41F002016165CE
:100DA00004218140394208D022681268920704D594
:100DB000B160616D41F004016165102181403942EB
:100DC00018D020680268120714D5B1600268016863
:100DD000520306D4C90506D4016821F00801016058
:100DE00001E0080348D4216C21B140F2BC40C2F2BA
:100DF00000008847E16D202000FA01F23A424AD013
:100E000020680368DB0646D5B26094F83530026886
:100E1000052B21D122F016020260426922F08002E5
:100E20004261226CA36C1A4303D0026822F00802CC
:100E300002603F208840B060012084F83500216DB9
:100E40000020002984F8340049D040F2BC40C2F2AE
:100E50000000884701B0F0BD0168520310D4C905F5
:100E600012D4016821F010010160012084F83500DE
:100E7000002084F8340007E0A16C0029B5D1B9E75F
:100E8000080301D4616C00E0E16B21B140F2BC4089
:100E9000C2F200008847606D08B3606DC00717D0CC
:100EA000052084F835002068A90A026822F00102B2
:100EB000026000BF009A01328A42009202D80268A2
:100EC000D207F7D1012084F83500002084F83400DF
:100ED000E16C21B140F2BC40C2F20000884701B091
:100EE000F0BD0000704700002DE9F04743F61447BD
:100EF000C4F20107386840F2180940F2A80640F22F
:100F0000D038C4F202098004C2F20006C2F200081E
:100F100029D54FF4005038604FF48070B41DC9F8E3
:100F2000000040A12046FFF7CFF935682046FFF7C3
:100F300073FBB38882B22846214600F063FF4FF06E
:100F40008070C9F8000020464FF41671FFF7A9FE23
:100F50000E2040F20C0188F80000C2F20001C86ABD
:100F6000096B00F035FE386840F2740A4004C2F2A2
:100F7000000A27D54FF4804038604FF48070B41DCC
:100F8000C9F800002CA12046FFF79EF935682046DD
:100F9000FFF742FBB38882B22846214600F032FFB9
:100FA0004FF08070C9F8000020464FF41671FFF72B
:100FB00078FE0F2088F80000DAF82C00DAF83010FC
:100FC00000F006FE3868000458BFBDE8F0874FF413
:100FD000004038604FF48070B41DC9F800001BA1B8
:100FE0002046FFF771F935682046FFF715FBB388F7
:100FF00082B22846214600F005FF4FF08070C9F804
:10100000000020464FF41671FFF74BFE0F2088F8C2
:101010000000DAF82C00DAF83010BDE8F04700F0F4
:10102000D7BD00BF427265616B315F50696E203D74
:101030002030200D0A000000427265616B325F5063
:10104000696E203D2030200D0A000000427265616B
:101050006B335F50696E203D2030200D0A00000088
:101060002DE9F04F82B000F13E4241F2000502F15D
:10107000FF77C4F2020507224FEAB726A84208BF4D
:101080000422042E38BF4FEAB7224FF0010A00268F
:1010900000274FF00008009208E000BF023708F177
:1010A0000108202F06F1040600F0B2800C680AFA4D
:1010B00008F914EA090FF1D0D1F804A00AF0030BE3
:1010C000ABF10104012C17D80322846802FA07FE51
:1010D000CA6824EA0E04BA40224382604268CAF316
:1010E000001522EA090205FA08F54FEA480C6FEAF2
:1010F0000E042A43426009E00322BA40D443BBF104
:10110000030FBC4602D1BC4622E000BFC2688D6816
:10111000224005FA0CF52A43BBF1020FC26017D139
:101120006FF0030202EA5802024406F01C030F2586
:10113000D2F820E005FA03FA0D692EEA0A0E05FA44
:1011400003F343EA0E031362D1F804A00AF0030B81
:1011500002680BFA0CF322401A431AF4403F4FF096
:10116000010A02609AD0002243F644030192C4F2BD
:1011700002031A6843F6004E42F480421A601A686D
:10118000C4F2010E02F480420192019A28F0030297
:101190004FF6084C7244CFF6FF7C52F80C3006F044
:1011A0000C050F24AC40A343009C04FA05F52B4327
:1011B00042F80C30DEF808204B6842EA090543F695
:1011C0000C4CDC0258BF22EA0905CEF80850C4F2E4
:1011D000010CDCF800209C0242EA090558BF22EA13
:1011E0000905CCF80050DEF804209C0342EA09050A
:1011F00058BF22EA0905CEF80450DEF80020DB03D0
:1012000042EA090558BF22EA0905CEF8005045E731
:1012100002B0BDE8F08F0000B0B582B0002143F607
:1012200008020191C4F20202D36B45F21E0543F499
:101230008023D363D36BC0F6000503F480230193AE
:10124000019B1368136813681368D2F8F83340F2EF
:101250000403C2F200031B6812680446C2F3423260
:10126000AA5C4FF0FF3023FA02F24DF68363C4F21A
:101270001B33A2FB032340F21C5544F6000200EB93
:101280009340C2F20005C4F2010240F2E733C5E91F
:1012900000202846C5E902132961A96100F06CF815
:1012A00008B102B0B0BD95F83D000128F9D1022087
:1012B00085F83D00286840F6FF32C168C4F200029C
:1012C000904241F00101C1600FDCB0F1804F1DD0B0
:1012D00040F20041C4F20001884217D040F60001FC
:1012E000C4F20001884211D015E040F60041C4F27A
:1012F000000188420AD044F20001C4F20101884290
:1013000004D00021C4F20101884204D1816801F0B7
:101310000701062903D0016841F0010101604EF286
:101320000010CEF200004FF080610F2C0160B8D8A1
:101330004EF60C50CEF2000000684FF0FF32C0F3C2
:10134000022080F00701042928BF0421033802FA93
:1013500001F138BF002024EA010101FA00F04EF249
:101360001A410001CEF20001087040F20000C2F202
:101370000000046002B0B0BD002804BF0120704727
:1013800070B582B0044690F83D00F0B1022084F8B8
:101390003D002068211D01F0B5FE012084F84600C3
:1013A00084F83E0084F83F0084F8400084F841004F
:1013B00084F8420084F8430084F8440084F845002F
:1013C00084F83D00002002B070BD21680020B1F11A
:1013D000804F84F83C005BD00020C4F201008142C1
:1013E000D4D14FF0000E43F64001CDF804E0C4F232
:1013F00002014A684EF60C5C42F001024A604968FC
:10140000CEF2000C01F0010101910199DCF80020FD
:101410000421C2F3022282F00703042B28BF0B46EB
:101420004FF0FF30033A00FA03F34FF0050538BFE1
:10143000724625EA030303FA02F24EF20013120188
:10144000CEF2000383F818234FF080721A60DCF8A4
:101450000020C2F3022282F00706042E38BF314674
:101460008840033A25EA000038BF724690404EF2A9
:1014700019410001CEF2000108704FF000701860B1
:10148000DCF800004FF0806081F801E018607DE733
:1014900043F640010090C4F202010A6842F00102E2
:1014A0000A60096801F00101009100994EF60C51A3
:1014B000CEF200010968C1F3022181F00702042A7B
:1014C00028BF0422033938BF01464FF0FF30904057
:1014D000052222EA000088404EF219410001CEF2B6
:1014E0000001C8704EF20010CEF200004FF08051A3
:1014F00001604BE780B590F83C20012A4FF00202D2
:1015000000F0BF8080F83D20D0F800C04FF6777221
:10151000DCF8083023EA0202CCF808200B684F2BD5
:1015200028DC1F2B43DD202B44D0302B42D0402B16
:1015300040F0A980D1F804E0C968DCF82030DCF87C
:10154000202022F00102CCF82020DCF8182022F024
:10155000F00242EA011123F00A0242EA0E02CCF83C
:101560001810CCF82020DCF8081041F0470121F0D9
:1015700030017DE06F2B25DDB3F5005F46D0B3F57C
:10158000805F77D0702B7ED1D1E901E3C968DCF8A8
:10159000082043EA0E0322F47F4243EA012111436B
:1015A000CCF80810DCF8081041F0770160E00BB1CE
:1015B000102B68D1DCF8081021F07001194341F0BC
:1015C000070155E0502B34D0602B5CD1D1F804E0FA
:1015D000C968DCF8203023F01003CCF82030DCF8A8
:1015E0001830DCF8202023F4704322F0A00243EAF4
:1015F000013142EA0E12CCF81810CCF82020DCF8A9
:10160000081041F0670121F0100131E0D1E901E358
:10161000C968DCF8082043EA0E0322F47F4243EA5B
:1016200001211143CCF80810DCF8081041F4804186
:101630001EE0D1F804E0C968DCF82030DCF8202096
:1016400022F00102CCF82020DCF8182022F0F00271
:1016500042EA011123F00A0242EA0E02CCF8181005
:10166000CCF82020DCF8081041F0570121F02001CF
:10167000CCF808100022012180F83D10002180F8EC
:101680003C10104680BD0122F5E70000B0B50446CD
:1016900000680169890744BFC1685FEA817137D476
:1016A0000169490744BFC1685FEA41713FD40169DC
:1016B000090744BFC1685FEA017148D40169C906DE
:1016C00044BFC1685FEAC16150D40169C9071CBF4A
:1016D000C1685FEAC17159D10169090641BFC1689A
:1016E0005FEA01616FF0800101610169490641BF54
:1016F000C1685FEA41616FF04001016101698906DB
:1017000041BFC1685FEA81616FF020010161B0BD36
:101710006FF002010161012121778169890708BF0A
:10172000B0F1804F43D0206800212177B8E76FF0F7
:101730000401016102212177816911F4407F08BF12
:10174000B0F1804F42D0206800212177AFE76FF0E1
:101750000801016104212177C169890708BFB0F13F
:10176000804F43D0206800212177A7E76FF0100158
:10177000016108212177C16911F4407F08BFB0F1F0
:10178000804F44D02068002121779EE744F6000274
:10179000C4F201026FF00101904201619CD140F25C
:1017A0006451C2F200010A6801320A6094E740F213
:1017B0000C05C2F2000595F82300012854D195F8D4
:1017C0002200B8B301283BD1012035E040F20C05DE
:1017D000C2F2000595F82300012872D195F8220085
:1017E000002854D0012858D1012052E040F20C05C5
:1017F000C2F2000595F82300012840F08F8095F88B
:101800002200002870D0012874D101206EE040F23F
:101810000C05C2F2000595F82300012840F0AB80CA
:1018200095F82200002800F08C80012840F08F807D
:10183000012088E04FF0FF30A9690844A86100E06A
:10184000A869E969884207D1E86A296B00F0C0F904
:10185000022085F8230007E040F61400C4F20200DD
:10186000016881F40051016040F27405C2F2000584
:1018700095F82300012840F0AB8095F8220000285D
:1018800000F08C80012840F08F80012088E04FF02C
:10189000FF30A9690844A86100E0A869E9698842A5
:1018A00007D1E86A296B00F093F9022085F823003C
:1018B00007E040F61400C4F20200016881F4005110
:1018C000016040F27405C2F2000595F8230001287A
:1018D00040F0AB8095F82200002800F08C800128B1
:1018E00040F08F80012088E04FF0FF30A969084464
:1018F000A86100E0A869E969884207D1E86A296B14
:1019000000F066F9022085F8230007E040F6140095
:10191000C4F20200016881F40051016040F27405D4
:10192000C2F2000595F82300012840F0A98095F83F
:101930002200002800F08A80012840F08D800120DC
:1019400086E04FF0FF30A9690844A86100E0A8696B
:10195000E969884207D1E86A296B00F039F9022069
:1019600085F8230007E040F61400C4F20200016885
:1019700081F40051016040F27405C2F2000595F84F
:101980002300012840F0A78095F82200002800F0ED
:101990008880012840F08B80012084E04FF0FF30E8
:1019A000A9690844A86100E0A869E969884207D1EB
:1019B000E86A296B00F00CF9022085F8230007E0A3
:1019C00040F61400C4F20200016881F40051016085
:1019D00040F24005C2F2000595F8230001287FF48B
:1019E000A2AE95F82200002800F08680012840F081
:1019F0008980012082E04FF0FF30A9690844A86186
:101A000000E0A869E969884207D1E86A296B00F01B
:101A1000DFF8022085F8230007E040F61400C4F246
:101A20000200016881F40051016040F24005C2F2F9
:101A3000000595F8230001287FF485AE95F8220073
:101A4000002874D0012878D1012072E04FF0FF30D7
:101A5000A9690844A86100E0A869E969884207D13A
:101A6000E86A296B00F0B4F8022085F8230007E04B
:101A700040F61400C4F20200016881F400510160D4
:101A800040F24005C2F2000595F8230001287FF4DA
:101A900069AE95F82200002864D0012868D10120A1
:101AA00062E04FF0FF30A9690844A86100E0A8692E
:101AB000E969884207D1E86A296B00F089F80220B9
:101AC00085F8230007E040F61400C4F20200016824
:101AD00081F40051016040F24005C2F2000595F822
:101AE000230001287FF44EAE95F82200002854D040
:101AF000012858D1012052E04FF0FF30A969084475
:101B0000A86100E0A869E969884207D1E86A296B01
:101B100000F05EF8022085F8230004E640F6140089
:101B2000C4F20200016881F400510160FBE54FF04E
:101B3000FF30A9690844A86100E0A869E969884202
:101B400007D1E86A296B00F043F8022085F82300EA
:101B5000F9E540F61400C4F20200016881F4005176
:101B60000160F0E54FF0FF30A9690844A86100E08A
:101B7000A869E969884207D1E86A296B00F028F86A
:101B8000022085F82300EDE540F61400C4F20200BF
:101B9000016881F400510160E4E54FF0FF30A9696C
:101BA0000844A86100E0A869E969884207D1E86AA9
:101BB000296B00F00DF8022085F82300E2E540F6DD
:101BC0001400C4F20200016881F400510160D9E5FB
:101BD00080B54FEAB103032B88BF80BD02680FF2C6
:101BE000B40C5CF823C0D36803EA0C03D36001F0A3
:101BF0001F0C012303FA0CFE136A40F2200C23EAA7
:101C00000E03C4F2010C1362D2F820E0ACF1200301
:101C10009A42C2F820E013D1DCF800E041F211133F
:101C20001EEA030F0CD1DCF800E040F244431EEA48
:101C3000030F05D1DCF8243023F40043CCF8243022
:101C4000D2F820C041F211131CEA030F06D1D2F8DA
:101C500020C040F244431CEA030F10D0082914D0DE
:101C6000042904D039B9012180F83E1080BD01213A
:101C700080F83F1080BD012180F8411080BD1368BD
:101C800023F0010313600829EAD1012180F84010F4
:101C900080BD00BFFDFFFFFFFBFFFFFFF7FFFFFF62
:101CA000EFFFFFFFF0B581B040F27841C2F20001D2
:101CB00091F83C2091F83E30202B40F0A180002884
:101CC00000F09E80012A00F09B804FF0000C01265E
:101CD0002222C1F830C088628E85C1F840C081F8E8
:101CE0003E208B6B43F2F12443F20D45C0F6000415
:101CF000C0F60005C3E90F4593F834400A6843F283
:101D0000E115C0F60005012CDD64C3F850C031D0E8
:101D100083F83460D3F858E093F83540012C26D18D
:101D2000022483F8354000245C651C689D68DB6DE7
:101D30002668171D26F4802626600126402D3D4684
:101D4000666004BF05463846A560E0603F209840C5
:101D5000CEF80800206840F016002060206840F0AF
:101D600008002060206840F00100206002E00020B0
:101D700083F83400CDF800C01068009050680090DF
:101D80000098086981F83CC030B300BF52E8030FE7
:101D90000A6840F4807042E80303EBB1086850E839
:101DA000030F0A6840F4807042E80303A3B1086897
:101DB00050E8030F0A6840F4807042E803035BB107
:101DC000086850E8030F0A6840F4807042E8030393
:101DD00013B10A68DAE700BF086850E8050F0A681F
:101DE00040F0010042E80503002BF5D1086850E8F7
:101DF000050F0A6840F0400042E80503002BF5D1CA
:101E000001B0F0BD70B590F83D50202D03D10029F0
:101E100018BF002A00D170BD90F83C50012D08BFBA
:101E200070BD0025212440F2645C056480F83D40CB
:101E3000C2F2000CDCF800E08284C2848268B2F551
:101E4000805F07D10269002A1CBF0A4629460C465A
:101E5000114600E0002480F83C50C58C0268FDB1BA
:101E60005D1C00BF1668360609D4002DFAD0F3B108
:101E7000DCF80060A6EB0E069E42F3D917E019B11C
:101E800011F8016B566005E034F8021B6FF35F2117
:101E900051600021C68C013EC684C68C002EE1D163
:101EA0001168490679D4591C3DE000BF026852E828
:101EB000031F026821F4D07142E80313E3B1016803
:101EC00051E8031F026821F4D07142E803139BB16B
:101ED000016851E8031F026821F4D07142E803133E
:101EE00053B1016851E8031F026821F4D07142E840
:101EF0000313002BDAD100BF016851E8051F026807
:101F000021F0010142E80513002BF5D1202180F8D2
:101F10003D1080F83E10002180F83C1070BD00BFDD
:101F20001468640639D40029FAD03BB1DCF80040CB
:101F3000A4EB0E049C42F3D900E0026852E8031FB0
:101F4000026821F4D07142E80313DBB1016851E863
:101F5000031F026821F4D07142E8031393B10168B2
:101F600051E8031F026821F4D07142E803134BB11A
:101F7000016851E8031F026821F4D07142E803139D
:101F8000002BDAD1016851E8051F026821F0010138
:101F900042E80513002BF5D1B8E7202180F83D1069
:101FA00070BD0000FEE70000FEE70000FEE7000055
:101FB000EFF30980BFF36F8F154B1A681EF0100FF7
:101FC00008BF20ED108A20E9F04F10602DE90900CC
:101FD0004FF0500080F31188BFF34F8FBFF36F8F26
:101FE00002F086FC4FF0000080F31188BDE8090084
:101FF00019680868B0E8F04F1EF0100F08BFB0EC89
:10200000108A80F30988BFF36F8F704700BF00BF4D
:102010006805002000000000000000000000000033
:10202000074B19680868B0E8F04F80F30988BFF3E0
:102030006F8F4FF0000080F31188704700BF00BF22
:10204000680500208CB040F2A808C2F2000844F2F3
:10205000DC2608F1060B1824C2F2000600275846B9
:102060004FF42F71C4F202043770FEF71AFE44F2E7
:10207000DE20C2F2000040F2D0390770C2F200093F
:10208000112089F800004FF480750FF2684158461E
:1020900088F8C3722560FEF717F9D8F80070584623
:1020A000FEF7BAFAB8F8043082B238465946FFF75C
:1020B000A9FE4FF0807A58464FF41671C4F800A07C
:1020C000FEF7EFFD0FF2344158462560FEF7FCF8AD
:1020D000D8F800705846FEF79FFAB8F8043082B27C
:1020E00038465946FFF78EFE58464FF41671C4F82D
:1020F00000A0FEF7D6FD45F22601C0F600015846C5
:102100002560FEF7E1F8D8F800705846FEF784FA2B
:10211000B8F8043082B238465946FFF773FE584685
:102120004FF41671C4F800A0FEF7BBFD08F2C22000
:10213000FFF7B8FD0DF10C0A0AF10C00019008F24E
:102140005E20029022E000BF4FF48070206058466D
:102150000FF26041FEF7B8F8D8F800705846FEF765
:102160005BFAB8F8043082B238465946FFF74AFEA7
:102170004FF08070206058464FF41671FEF791FDC5
:10218000112089F80000012002F0DCF830780128E5
:1021900032D144F2DD20C2F20000077850462421FB
:1021A000FEF7A1FD042F2CD0032F50D1019D0298E2
:1021B0000FF2BC3152462B46FEF7CEF850460FF2D6
:1021C000B8310322FEF7FCF9000659D050460FF251
:1021D000D0310322FEF7F4F9000636D19DF818003D
:1021E000782800F0FE80792800F0FD807A2840F001
:1021F000FC8007276CE100BF99F80070122FA3D074
:10220000C1E7019D0298C6A152462B46FEF7A4F8ED
:102210005046C5A10422FEF7D3F9000644D050462B
:10222000C3A10422FEF7CCF900066FD05046CBA123
:102230000422FEF7C5F9000607D12846C9A10222EB
:10224000FEF7BEF9000600F0CA80122740E140F612
:102250005250C0F20A00C8F80A0045F2452047462D
:10226000C4F6527047F8060F3846FEF7D5F9B8F8AD
:10227000043082B240463946FFF7C4FD122727E1F9
:102280009DF818007A2864D0792870D078287BD1FE
:1022900044F2B822C2F20002029802F11803BDA172
:1022A000FEF75AF8022713E14FF480775846AEA1A3
:1022B0002760FEF709F8D8F800505846FEF7ACF949
:1022C000B8F8043082B228465946FFF79BFD4FF01C
:1022D000807558464FF416712560FEF7E2FC45F212
:1022E0002A015846C0F600012760FDF7EDFFD8F837
:1022F00000705846FEF790F9B8F8043082B23846BC
:102300005946FFF77FFD25600127E1E09DF81800A1
:102310007A2800F08B80792800F0A08078287FF45C
:1023200085AF4FF480702060584689A1FDF7CCFF3F
:10233000D8F800705846FEF76FF9B8F8043082B24A
:1023400038465946FFF75EFD4FF0807020600E273B
:10235000BEE044F2B820C2F2000000F1080200F131
:102360001C03029888A1FDF7F7FF0427B0E044F2B0
:10237000B820C2F20000021D00F11A0302987FA1EA
:10238000FDF7EAFF0327A3E045F284112846C0F6D3
:1023900000010722FEF714F9000677D045F28C11F0
:1023A0002846C0F600010722FEF70AF900067ED093
:1023B00045F294112846C0F600010722FEF700F905
:1023C00000067FF403AF44F2B820C2F2000000F12F
:1023D0002002029873A1FDF7BFFF0A2778E01327B8
:1023E00076E0052774E0062772E045F2841128465E
:1023F000C0F600010722FEF7E3F8000655D045F2CB
:102400008C112846C0F600010722FEF7D9F8000615
:102410005CD045F294112846C0F600010722FEF771
:10242000CFF800067FF411AF0D2751E04FF4807014
:102430002060584640A1FDF747FFD8F80070584685
:10244000FEF7EAF8B8F8043082B238465946FFF78A
:10245000D9FC4FF080702060102739E04FF4807075
:102460002060584637A1FDF72FFFD8F80070584676
:10247000FEF7D2F8B8F8043082B238465946FFF772
:10248000C1FC4FF0807020600F2721E044F2B8209B
:10249000C2F2000000F11E02029845F29C11C0F643
:1024A0000001FDF759FF082712E00B2710E044F266
:1024B000B820C2F2000000F11F02029845F2AB11F1
:1024C000C0F60001FDF748FF092701E00C2700BF17
:1024D000002558464FF42F7189F800703570FEF7CB
:1024E000E0FB44F2DE20C2F200000570122F7FF400
:1024F0004AAE29E652656164790D0A00456E74653D
:1025000072206120636F6D6D616E6420616E642066
:1025100070726573732022456E746572220D0A0015
:10252000257320257300000068656C7000000000B2
:1025300073746F700000000053544F50205A0D0AFE
:102540000000000053544F5020590D0A00000000B5
:1025500053544F5020580D0A0000000073687574E2
:10256000000000007543000048454C500D0A000073
:102570002573202573200000736574007365742033
:102580007920256420257500736574207A202564E0
:10259000202575007365742078202564202575003A
:1025A000676574007365742072656C61795F3320B0
:1025B000256400004572726F720D0A0040F2A8098E
:1025C00040F2180840F2D03B40F20C04C2F200097D
:1025D000C4F20208C2F2000BC2F200044FF480768B
:1025E00009F106054FF0807A51E000BF94F822000F
:1025F000618900284FF0010000FA01F061684A6922
:102600000CBF22EA000010434861022001F09AFE4C
:10261000284664A1C8F80060FDF756FED9F800709E
:102620002846FDF7F9FFB9F8043082B2384629464A
:10263000FFF7E8FB28464FF41671C8F800A0FEF734
:1026400030FB45F226012846C0F60001C8F80060BC
:10265000FDF73AFED9F800702846FDF7DDFFB9F81E
:10266000043082B238462946FFF7CCFB28464FF4A7
:102670001671C8F800A0FEF714FB002084F82300B0
:1026800011208BF800004FF47A7001F05BFE9BF88C
:10269000001094F82300022908BF002802D0022865
:1026A000A4D02BE028463CA1C8F80060FDF70CFE42
:1026B000D9F800702846FDF7AFFFB9F8043082B2B0
:1026C00038462946FFF79EFB28464FF41671C8F896
:1026D00000A0FEF7E6FA44F2B8210120C2F20001A0
:1026E00084F82300088B0968A0842046E16100F08B
:1026F000A5FE94F8230002283FF478AF9BF8000071
:102700000E28C0D1E06A216B026801F01F03176A2E
:10271000012606FA03F327EA030320261362C4F214
:102720000106136AA6F12007BA4213620ED133687C
:1027300041F211173B4209D1336840F244473B4212
:1027400004D1736A23F40043736200BF136A41F239
:1027500011173B4208D1136A40F244473B4203D170
:10276000136823F00103136008294FF480760AD020
:1027700004290CD000294FF0010114BF80F841104A
:1027800080F83E105DE7012180F8401059E70121F3
:1027900080F83F1055E700BF736574207820706F94
:1027A000730D0A00736574207820706F7320636F57
:1027B0006D706C657465640D0A00000082B02020A5
:1027C00040F2A80A40F21808C4F2010040F2D039E1
:1027D00040F27404C2F2000AC4F20208C2F2000914
:1027E000C2F200044FF480770AF106054FF0807BB7
:1027F0002038019051E000BF94F822006189002840
:102800004FF0010000FA01F061684A690CBF22EA4A
:10281000000010434861022001F094FD28467CA18D
:10282000C8F80070FDF750FDDAF800602846FDF7A3
:10283000F3FEBAF8043082B230462946FFF7E2FAD6
:1028400028464FF41671C8F800B0FEF72AFA45F290
:1028500026012846C0F60001C8F80070FDF734FDD7
:10286000DAF800602846FDF7D7FEBAF8043082B2E5
:1028700030462946FFF7C6FA28464FF41671C8F8C5
:1028800000B0FEF70EFA002084F82300112089F82A
:1028900000004FF47A7001F055FD99F8000094F8AB
:1028A0002310032808BF002904D00229A4D00F2830
:1028B000EFD12AE028465CA1C8F80070FDF704FDBE
:1028C000DAF800602846FDF7A7FEBAF8043082B2B5
:1028D00030462946FFF796FA28464FF41671C8F895
:1028E00000B0FEF7DEF944F2B8210120C2F2000187
:1028F00084F823004868498BE0612046A18400F0F9
:102900009DFD99F800000F28C3D1284649A1C8F8B9
:102910000070FDF7D9FCDAF800602846FDF77CFE70
:10292000BAF8043082B230462946FFF76BFA2846DF
:102930004FF41671C8F800B0FEF7B3F945F226015E
:102940002846C0F60001C8F80070FDF7BDFCDAF8B3
:1029500000602846FDF760FEBAF8043082B23046C7
:102960002946FFF74FFA28464FF41671C8F800B011
:10297000FEF797F9E06A216B026801F01F03166AFF
:10298000012707FA03F326EA03031362136A019F80
:102990001362BA4216D12023C4F201031B6841F22C
:1029A00011173B420ED12023C4F201031B6840F2F1
:1029B00044473B4206D12026C4F20106736A23F441
:1029C00000437362136A41F211173B4208D1136A44
:1029D00040F244473B4203D1136823F001031360E4
:1029E00008294FF480770AD004290CD000294FF031
:1029F000010114BF80F8411080F83E1043E7012127
:102A000080F840103FE7012180F83F103BE700BF0E
:102A1000736574207920706F7320636F6D706C65BF
:102A20007465640D0A000000736574207920706F6E
:102A3000730D0A0073746F70207920726563696585
:102A40007665640D0A00000040F2A80A40F2D03911
:102A500040F24004C2F2000AC2F20009C2F20004CD
:102A60000AF1060844E000BF1827C4F202074FF439
:102A700080764046CCA13E60FDF726FCDAF8005097
:102A80004046FDF7C9FDBAF8043082B228464146F7
:102A9000FFF7B8F94FF0807B40464FF41671C7F846
:102AA00000B0FEF7FEF845F226014046C0F60001F0
:102AB0003E60FDF709FCDAF800504046FDF7ACFD3A
:102AC000BAF8043082B228464146FFF79BF94046E7
:102AD0004FF41671C7F800B0FEF7E3F8002084F851
:102AE0002300112089F800004FF47A7001F02AFCCD
:102AF00099F80000042840F0028194F8231000297E
:102B000040F0FD801826C4F202064FF48070306059
:102B10004046A2A1FDF7D8FBDAF800504046FDF789
:102B20007BFDBAF8043082B228464146D346FFF70F
:102B300069F94FF08070306040464FF41671FEF72F
:102B4000B0F844F2B820D4F82CE0C2F20000836858
:102B5000828BDEF800C0A76901210020002684F8DE
:102B60002310E361A2842569CCF82C00BB42C8BFC6
:102B7000012684F82260E284A68A686901FA06F6D2
:102B800020EA06066E616689BB42676801FA06F3B1
:102B90007E69CCBF26EA030333437B61236BDA46AD
:102BA0003BB3236B042B64D1CCF82C20CCF8382019
:102BB0009EF83F20012A40F0A08002208EF83F00BE
:102BC000DCF80C10442241F00401CCF80C10DCF8C5
:102BD0002010C4F2010221F01001CCF82010DCF822
:102BE0002010443A944541F01001CCF820102AD12D
:102BF00022E0CCF82C20CCF834209EF83E20012A8C
:102C00007BD102208EF83E00DCF80C10442241F00B
:102C10000201CCF80C10DCF82010C4F2010221F003
:102C20000101CCF82010DCF82010443A944541F022
:102C30000101CCF8201006D14422C4F2010211682F
:102C400041F40041116040F6FF30C4F200008445B9
:102C500036DCBCF1804F44D040F20040C4F20000AA
:102C600084453ED040F60000C4F20000844538D0D0
:102C70003DE0236B082B40D1CCF82C20CCF83C2035
:102C80009EF84020012A38D102208EF84000DCF85E
:102C90000C10442241F00801CCF80C10DCF8201094
:102CA000C4F2010221F48071CCF82010DCF820106D
:102CB000443A944541F48071CCF82010C3D1BBE76D
:102CC00040F60040C4F2000084450AD044F20000FF
:102CD000C4F20100844504D00020C4F20100844500
:102CE00005D1DCF8081001F00701062905D0DCF851
:102CF000001041F00101CCF8001099F8000094F8A0
:102D00002310022902D110287FF4AEAE10287FF4E0
:102D1000EBAE1120182689F80000C4F202064FF429
:102D20008077404626A13760FDF7CEFADAF80050EA
:102D30004046FDF771FCBAF8043082B2284641469D
:102D4000FFF760F84FF0807B40464FF41671C6F8ED
:102D500000B0FDF7A6FF45F226014046C0F600018F
:102D60003760FDF7B1FADAF800504046FDF754FC41
:102D7000BAF8043082B228464146FFF743F840468D
:102D80004FF41671C6F800B0FDF78BFFE06A216BB7
:102D9000FEF71EFF002084F82300A5E6736574206B
:102DA0007A20706F730D0A00736574207A20706F3B
:102DB0007320636F6D706C657465640D0A000000AC
:102DC00073746F70207A2072656369657665640D2F
:102DD0000A00000082B044F2B82540F2A80840F68C
:102DE000140640F2180940F2D037C2F20005C2F2D0
:102DF0000008C4F20206C4F20209C2F2000708F198
:102E0000060405F11E004FF0110A01904AE087A167
:102E10004FF4807B2046C9F800B0FDF755FAD8F88A
:102E200000602046FDF7F8FBB8F8043082B2304667
:102E30002146FEF7E7FF4FF0807A20464FF41671E7
:102E4000C9F800A0FDF72DFF45F226012046C0F687
:102E50000001C9F800B0FDF737FAD8F80060204645
:102E6000FDF7DAFBB8F8043082B230462146FEF7AF
:102E7000C9FF20464FF41671C9F800A0FDF711FFF5
:102E800005F12000202140F61406C4F202064FF09E
:102E9000110A0078002818BF0904C9F8001487F83F
:102EA00000A00FE0306880F40050306038780838B7
:102EB0000B2807D8DFE800F00A141E0606060606EF
:102EC000060606B0012001F03DFAEBE7284610F8AF
:102ED0001E1F012919D000295BD164A116E000BF93
:102EE000284610F81F1F012955D0002940F0908076
:102EF00056A151E0284610F8201F012900F08A80D1
:102F000000293FF484AF2021C3E754A14FF4807B14
:102F10002046C9F800B0FDF7D7F9D8F80050204690
:102F2000FDF77AFBB8F8043082B228462146FEF756
:102F300069FF4FF0807520464FF41671C9F80050B4
:102F4000FDF7AFFE45F226012046C0F60001C9F8A4
:102F500000B0FDF7B9F9D8F800702046FDF75CFB2A
:102F6000B8F8043082B238462146FEF74BFF2046BF
:102F70004FF41671C9F80050FDF793FE019844F222
:102F8000B82540F2D0370821C2F20005C2F200078E
:102F90007FE708217DE729A14FF4807B2046C9F80F
:102FA00000B0FDF791F9D8F800602046FDF734FB3A
:102FB000B8F8043082B230462146FEF723FF4FF0C6
:102FC000807A20464FF41671C9F800A0FDF769FE1B
:102FD00045F226012046C0F60001C9F800B0FDF711
:102FE00073F9D8F800602046FDF716FBB8F80430F6
:102FF00082B230462146FEF705FF20464FF4167197
:10300000C9F800A0FDF74DFE05F11F0010213AE7B9
:1030100010213EE701A1FBE600F0FEF972656C614C
:10302000792033206F6E0D0A0000000072656C611C
:10303000792033206F66660D0A00000072656C61AE
:10304000792032206F6E0D0A0000000072656C61FD
:10305000792032206F66660D0A00000072656C618F
:10306000792031206F6E0D0A0000000072656C61DE
:10307000792031206F66660D0A00000080B54FF0A0
:10308000500080F31188BFF36F8FBFF34F8F01F0B3
:10309000BBFD30B14EF60450CEF200004FF080512F
:1030A0000160002080F3118880BD00004EF688503A
:1030B000CEF20000016841F4700101607047000029
:1030C00040F2E830C2F20000FEF7E0BA80B540F20C
:1030D000E830C2F20000FEF7D9FA40F21C50C2F20A
:1030E0000000BDE88040FEF7D1BA000040F2E830B1
:1030F000C2F20000FEF7CABA40F23040C2F200004D
:10310000FEF7C4BA10B540F2FF7E0368C4F2000EA9
:1031100040F2000C7045C4F2010C0ADD40F60002DA
:10312000C4F2000290420DD060450BD040F6004240
:1031300004E0B0F1804F05D040F20042C4F200023A
:10314000904203D14A6823F0700313434FF6FF7295
:10315000C4F20002904209DC704512DCB0F1804FED
:1031600026D040F20042C4F200021FE044F2FF32D7
:10317000C4F2010290420FDC604519D044F2000213
:1031800012E040F60002C4F20002904210D040F675
:103190000042C4F2000209E044F60002C4F2010257
:1031A000904205D044F20042C4F20102904203D1A1
:1031B000CA6823F44073134323F080024B69D1F8AB
:1031C00000E08C681A4360450260C462C0F828E0E1
:1031D00002D10969CCF830100121416110BD000015
:1031E000806B01684A6990F83D30212B2DD112F097
:1031F00080022AD00022C28451E8031F026821F015
:10320000C00142E80313E3B1016851E8031F0268FB
:1032100021F0C00142E803139BB1016851E8031F8C
:10322000026821F0C00142E8031353B1016851E87C
:10323000031F026821F0C00142E803130BB10168CB
:10324000DAE7202180F83D1001684A6990F83E30A5
:10325000222B48D112F0400245D00022C28500BF87
:1032600051E8031F026821F4907142E80313EBB1A7
:10327000016851E8031F026821F4907142E80313CA
:10328000A3B1016851E8031F026821F4907142E87C
:1032900003135BB1016851E8031F026821F49071C8
:1032A00042E8031313B10168DAE700BF016851E88F
:1032B000051F026821F0010142E80513002BF5D13A
:1032C000016B01290AD100BF016851E8031F0268A0
:1032D00021F0100142E80313002BF5D1202180F8E2
:1032E0003E1000210163016C41F010010164704740
:1032F0000168806B0968C90530D40021C18500BF11
:10330000016851E8031F026821F4807142E8031349
:10331000002BF5D1016851E8051F026821F0010179
:1033200042E80513002BF5D1016851E8051F02683A
:1033300021F0400142E80513002BF5D1202180F84F
:103340003E10016B012909D1016851E8031F026891
:1033500021F0100142E80313002BF5D1016B012984
:1033600016D0006841F20002C4F2010290420FD16F
:1033700040F61400C4F20200016881F400510160BB
:1033800040F2A801C2F2000108680368934200D02D
:1033900070475368552B07D352685A2A04D891F8BE
:1033A000C222203281F8C22291F8C32291F8C2329F
:1033B0000A4482F85E32006842680A2A0BD14068EB
:1033C0000A2818BF704744F2DC20C2F20000012234
:1033D0000270002214E044F2DE22C2F200021378EE
:1033E00091F8C3025BB90B1893F85E32202B06D11B
:1033F0000123137044F2DD22C2F200021070421C5D
:1034000001F2C22081F8C322FEF74CBC806B006B36
:1034100070470000FEE700004EF60C50BFF34F8FE0
:10342000CEF200000168042201F4E061C0F2FA5219
:1034300011430160BFF34F8F00BFFDE7F0B581B0CE
:103440000446E16AD4E90656096800220069CA62A6
:10345000AE42C8BF0122A18C84F82220E184A18A57
:103460000127426907FA01F122EA010141614FF4A3
:10347000FA7000F067FF6089616807FA00F0AE42F9
:103480004A69CCBF22EA000010434861012000F0E5
:1034900059FF206B20B3206B04285DD1E16AA28C18
:1034A0000868C262E28C826391F83F20012A40F0F2
:1034B000B780022281F83F20C16841F00401C16059
:1034C000026A442122F010020262C4F20101026A7F
:1034D000A1F14403984242F01002026226D121E099
:1034E000E16AA28C0868C262E28C5208426391F8D9
:1034F0003E20012A40F09480022281F83E20C168DB
:1035000041F00201C160026A442122F0010202621C
:10351000C4F20101026AA1F14403984242F001029F
:10352000026203D10A6842F400420A6040F6FF31A9
:10353000C4F2000188424BDCB0F1804F6BD040F206
:103540000041C4F20001884265D040F60001C4F297
:10355000000188425FD065E0206B082860D1E16AF5
:10356000A28C0868C262E28C5208C26391F84020C3
:10357000012A55D1022281F84020C16841F008019A
:10358000C160026A442122F480720262C4F2010125
:10359000026AA1F14403984242F48072026203D1AC
:1035A0000A6842F400420A6040F6FF31C4F20001AA
:1035B00088421FDCB0F1804F2DD040F20041C4F2B0
:1035C0000001884227D040F60001C4F2000120E04B
:1035D00040F60041C4F2000188421CD044F20001D0
:1035E000C4F20101884216D00021C4F201018842D0
:1035F00011D017E040F60041C4F2000188420AD021
:1036000044F20001C4F20101884204D00021C4F256
:103610000101884206D1816801F00701062901D124
:1036200001B0F0BD016841F00101016001B0F0BDE1
:103630008CB043F63004C4F20204D4F8D0034EF642
:103640000C5740F40070C4F8D003D4F8D003CEF285
:10365000000740F48060C4F8D003D4F8D0034FF6DC
:10366000FF0140F48070C4F8D003386847F2000BC3
:10367000084040F20031C0F2FA510843386000209F
:10368000C4F2000B0025FDF7C7FD079560694FF0F8
:10369000FF3240F480406061606900F48040079030
:1036A00007980795206940F080502061206900F05C
:1036B0008050079007983868C0F3022080F0070117
:1036C000042928BF0421033802FA01F14FF00F0248
:1036D00038BF284622EA010101FA00F00001B8755E
:1036E00007952069022140F080502061206900F098
:1036F0008050079007980795DBF8000061F38F3042
:10370000CBF80000DBF8000000F440400790079879
:1037100054F8280C00F00C0004281ED054F8280C93
:1037200000F00C00082803D154F82C0C400214D4EB
:1037300054F8300C40F4803044F8300C40F26450BF
:10374000C2F20000016800BF54F8302C920306D486
:103750000268521A642AF7D978E054F8300C54F809
:10376000280C00F00C0008284CD154F82C0C47F61B
:10377000FF71C0F64371084045F21941C0F2417132
:10378000884263D1D4F8D00310F0060F09D102208B
:1037900084F8D003D4F8D00300F00700022840F0EA
:1037A000838054F8280C40F4E05044F8280C54F876
:1037B000280C40F4604044F8280C54F8280C20F001
:1037C000F00044F8280C54F8300C80016CD554F803
:1037D000280C022161F3010040F2645A44F8280CDD
:1037E000C2F2000ADAF8000041F2883154F8282CBD
:1037F00002F00C02082A2ED0DAF80020121A8A42AF
:10380000F4D951E06021C4F247210020086040F261
:103810006450C2F20000026854F8303C9B0104D5A9
:1038200003689B1A022BF7D910E045F21942C0F247
:10383000417244F82C2C01220A60016854F8302CA3
:1038400092019FD40268521A022AF7D9EFF310802E
:1038500072B600BFFEE7D4F8D00300F007000328DB
:1038600008D3022084F8D003D4F8D00300F0070076
:10387000022819D154F8280C042161F38C2044F853
:10388000280C54F8280C20F4604044F8280C54F814
:10389000280C00F00C0008280BD004282CD147F687
:1038A0004000C0F27D102BE0EFF3108072B600BF35
:1038B000FEE754F82C0C54F82C1C54F82C3C49020C
:1038C00047F64001C0F27D1100F03F02C3F38810BB
:1038D0005CBF42F20041C0F2F401A1FB00010023F1
:1038E000FDF767F954F82C1C0222C1F3014102EBE9
:1038F0004101B0FBF1F003E042F20040C0F2F400FD
:1039000054F8281C0FF6E812C1F30311515C40F281
:10391000040220FA01F140F20000C2F20000006847
:10392000C2F200021160FDF777FC4FF00009CDF8FC
:103930002C90CDF80C902068182640F004002060F0
:103940002068C4F2020600F0040003900398CDF84A
:103950000C90206807AD40F08000206020684FF098
:10396000010800F0800003900398CDF80C902068C7
:10397000294640F001002060206800F0010003901B
:103980000398CDF80C90206840F002002060206879
:1039900000F00200039003984FF00050C6F80008B2
:1039A0004FF4E00030604FF40700C6F800044FF415
:1039B000807030603820C6F800044FF40050079043
:1039C00006F5FD60CDE90889CDF82890FDF748FBA4
:1039D0004FF4B87007A981E801030BF5C8302946F8
:1039E000CDF828900290FDF73BFBBF2007A906F514
:1039F0007A7681E8010330462946CDF82890FDF714
:103A00002FFB4FF4604007904FF48810CDE9080871
:103A100030462946FDF724FB38684FF0FF33C0F3EA
:103A2000022181F007020420042A28BF024603393C
:103A300003FA02F24FF0050638BF494626EA0202B1
:103A400002FA01F14EF2004C0901CEF2000C8CF8A2
:103A500028104FF60451CFF6FF714FF480724CF8E6
:103A60000120CDF81C9022680BF5104842F480022A
:103A70002260226802F480020792079A3A68C2F331
:103A8000022282F00705042D38BF2846033A03FAC4
:103A900000F038BF4A4626EA000090404EF23A4213
:103AA0000001CEF2000210704FF080604CF801006F
:103AB00040F2E830C2F2000053214FF47A726546BA
:103AC000CDF82890CDE90899C0E90081C0E90292BB
:103AD000C0E90499C0F81890FDF74EFC18B1EFF357
:103AE000108072B6FEE740F2E8364FF48050C2F222
:103AF0000006DDF80890079007A93046FDF7FAFCAC
:103B000018B1EFF3108072B6FEE796F83C0001287A
:103B100003D1EFF3108072B6FEE7022086F83D0075
:103B2000306840F6FF3342688168C4F2000322F037
:103B30007002984242600EDCB0F1804F4B461CD0C0
:103B400040F20042C4F20002904216D040F6000259
:103B5000C4F200020FE040F60042C4F200029042BC
:103B60004B460AD044F20002C4F20102904204D053
:103B70000022C4F20102904202D121F08001816052
:103B80000120002586F83D0086F83C500BF52046C4
:103B900040F2784BC2F2000B4FF4E1300C21CBE93C
:103BA0000060CBE90255CBE90451CBE906559BF8FF
:103BB0003D0018B100220021002380E08BF83C502A
:103BC0000795606946F2404640F010006061606908
:103BD00007A900F010000790079807952068C4F225
:103BE000020640F001002060206800F0010007900C
:103BF00007984FF4C06007900220CDE90805032024
:103C00000A9007200B901846FDF72AFA40F2BC40B4
:103C1000C2F200004FF000614FF480624FF48073F5
:103C2000C0E90061C0E90255C0E90425C0E90653B6
:103C3000C0E908550222DAF8001080F8352080F833
:103C40003450326822F0010232603268D2070ED05E
:103C5000DAF80020521A052AF7D9202141650321FC
:103C600080F83510EFF3108072B600BFFEE73168C0
:103C700048F23F02CFF21002114041F0006141F4DE
:103C8000A0613160716942F6D03221F007017161A3
:103C900010212244C0E916214FF47C1146F8381C4B
:103CA00000214165012180F83510DBF80060DBE977
:103CB0000213DBE90652CBF83800C0F838B02420F4
:103CC0008BF83D00F06820F40050F060306920F47B
:103CD000405018433061DBE904030843F16818439E
:103CE00049F20C63104399430843F060706941F254
:103CF000004346F48061C4F2010320F4407099420D
:103D000040F2040140EA0500C2F20001706114BFF4
:103D10000A200D20096854F8283C48F21F5523FA60
:103D200000F045F21E0300F00700C0F60003185C27
:103D3000DBF8043021FA00F01921A0FB0101B2F5F3
:103D4000004FC5F2EB1518D15A00DB0FFCF731FF1D
:103D5000A0FB051251096FF0630201FB0200322241
:103D600002EBC000A0FB05024FF4F87000EA12104D
:103D700000EB0110C2F3421116E09A009B0FFCF712
:103D800018FFA0FB051251096FF0630201FB02004E
:103D9000322202EB0010A0FB0502F02000EA5210D4
:103DA00000EB0110C2F343110843B06030690021F9
:103DB00020F49040306170694FF0804220F02A007A
:103DC0007061F068532340F40050F0602020CBF87D
:103DD00040108BF83D008BF83E0040F23040C2F2BC
:103DE000000044F620660691CDE90411C0E90023E5
:103DF000C0E9021601618161FDF7BEFA18B1EFF367
:103E0000108072B6FEE740F230464FF48050C2F2A6
:103E10000006039003A93046FDF76CFB18B1EFF3E1
:103E2000108072B6FEE796F83D000225002804BF18
:103E3000002086F83C0086F83D503068311DFFF7C1
:103E400061F9012086F8460086F83E0086F83F00BA
:103E500086F8400086F8410086F8420086F8430064
:103E600086F8440086F8450086F83D0096F83C0048
:103E7000012804D1EFF3108072B600BFFEE786F888
:103E80003D50306840F6FF3342688168C4F2000359
:103E900022F07002984242600DDCB0F1804F1BD0DE
:103EA00040F20042C4F20002904215D040F60002F7
:103EB000C4F200020EE040F60042C4F2000290425A
:103EC0000AD044F20002C4F20102904204D000225F
:103ED000C4F20102904202D121F0800181604FF0D2
:103EE000010C86F83DC0026A6FF0020122F0010267
:103EF0000262026A43688569404508BF6FF00E019F
:103F000001EA020145F0600222F013024FF0000ABC
:103F100008BF23F4407343608261C0F834A001629B
:103F200081696FF0200541F0080181618169404598
:103F300021F0040181618169816186F83CC0016AD8
:103F400021F010010162016A4268836908BF6FF0C5
:103F5000E00523F4E64301EA050103F5C04308BF89
:103F600022F4406242608361C0F838A00162816936
:103F70006FF4007541F4006181618169404521F46D
:103F80008061816181698161016A21F480710162CE
:103F9000016A4268C36908BF6FF4606543F060035B
:103FA00001EA050123F0130308BF22F440524260E6
:103FB000C361C0F83CA00162C169B0F1804F41F01B
:103FC0000801C161C16921F00401C161C169C16118
:103FD00086F83CA015D1CDF81CA0206807A940F0B8
:103FE00001002060206800F001000790079807207A
:103FF00007900220CDE9080A4846CDE90AACFDF752
:104000002FF842F24500C0F60000BDA14FF4007247
:10401000032307AC009400F0ADFC012840F2D4303B
:104020000799C2F2000018BF5146016042F2BD502C
:10403000C0F60000B5A180220023009400F09AFC95
:10404000012840F2D8300799C2F2000018BF51464B
:10405000016042F2BD70C0F60000AFA180220023D3
:10406000009400F087FC012840F2DC300799C2F28E
:10407000000018BF5146016042F64920C0F600001A
:10408000A8A180220023009400F074FC012840F2D3
:10409000E0300799C2F2000018BF5146016042F6B5
:1040A000D550C0F60000A2A180220023009400F0A9
:1040B00061FC012840F2E4300799C2F2000018BF09
:1040C0005146016040F2906644F2A140C2F20006FF
:1040D000C0F6000099A180220023009600F04AFC5F
:1040E000411C2FD0012840F0F9804FF0500181F39E
:1040F0001188BFF36F8FBFF34F8F40F28061C2F220
:1041000000014FF0FF320A6040F20861C2F2000184
:1041100001220A6040F28861C2F2000100224CF2E2
:1041200070200A60C4F20F1057F80C1C421C914218
:1041300011D14FF0500080F31188BFF36F8FBFF3A0
:104140004F8FFEE74FF0500080F31188BFF36F8F61
:10415000BFF34F8FFEE757F80C1C814208D14FF098
:10416000500080F31188BFF36F8FBFF34F8FFEE7CE
:104170004EF20041CEF2000108780B460790FF2076
:104180000870087807218DF80C009DF80C0044F2A7
:10419000B420C2F2000001609DF90C10B1F1FF3FA4
:1041A00059DC6FF006019DF80C20013152008DF8AA
:1041B0000C209DF90C20002AF5D44A4203310260FC
:1041C00049D14FF44071016007984FF618411870BB
:1041D0007869002540F4700078617869CFF6FF7146
:1041E00040F0704078614FF61040CFF6FF701D50E0
:1041F0005D5040F20401C2F20001096844F6D35256
:10420000C1F26202A1FB02124FF0FF3101EB9211E9
:104210004FF61442CFF6FF7240F20804995007217E
:10422000C2F200041950256000F0EAFAD7F828021B
:1042300040F04040C7F8280200F0B4F940F26C505A
:10424000C2F20000006878B140F27050C2F2000083
:104250000121016031E04FF0500080F31188BFF37D
:104260006F8FBFF34F8FFEE740F27050C2F2000035
:10427000056040F27450C2F200000068B0FA80F0AD
:10428000C0B2C0F11F0040F2785100EB8000C2F2D2
:10429000000151F8202012B301EB800151F8040F06
:1042A00040680A1D9042086001D140680860C068FB
:1042B00040F26851C2F200010860002007902068B7
:1042C0004FF0500181F31188BFF36F8FBFF34F8F11
:1042D000013000D0FEE707980028FCD0FEE74FF041
:1042E000500080F31188BFF36F8FBFF34F8FFEE74D
:1042F0000000000000000000010203040607080996
:1043000064656661756C745461736B006D79536597
:1043100072766F31000000006D79536572766F32EE
:10432000000000006D7953746570706572000000C4
:104330006D79536572766F330000000049444C4537
:10434000000000002DE9F04140F26C51C2F2000182
:104350000A6842B14FF0500080F31188BFF36F8FAD
:10436000BFF34F8FFEE70A6840F2685801320A60D7
:1043700040F28861C2F20001C2F200080A68D8F86F
:104380000030D3E902615C69B1606768D9681D1DBE
:10439000AF424E6008BF6160002159612168013958
:1043A0002160216869B9D8F8001040F27457C96AD1
:1043B000C2F2000701233E6803FA01F126EA010177
:1043C0003960D8F8001012EB000CC1F804C015D306
:1043D00040F27860C2F20000D0F800C0D8F800E0E7
:1043E000724652F8041F481C1ED00CF1080300BF8F
:1043F00018465B681C688C42FAD918E040F2746079
:10440000C2F20000D0F800E0D8F800100B4653F8D4
:10441000044F601C19D00EF1080000BF024640682E
:104420000568A542FAD913E0DCF810004368CEF81D
:1044300008309A60CEF80C004260CEF814C0DCF868
:1044400000000130CCF8000016E0DEF810205068C3
:1044500088608360CA605360C1F814E0DEF8000031
:104460000130CEF8000040F28060C2F20000016826
:104470008C4538BFC0F800C000F0A8FC002818BF69
:10448000BDE8F0814EF60450CEF200004FF08051AE
:104490000160BFF34F8FBFF36F8FBDE8F081000065
:1044A00040F27C6B40F2080A40F20468C2F2000B52
:1044B000C2F2000A4FF00009C2F2000806E000BF95
:1044C000206B00F0A7F9204600F0A4F9DBF800000B
:1044D000002840D04FF0500080F31188BFF36F8F59
:1044E000BFF34F8FDAF80000411CCAF8001030B952
:1044F0004EF60452CEF200021268120647D140F284
:104500004C62C2F20002D268D468D4E902736269D4
:10451000BB605668E368251DAE425F6008BF53600C
:10452000C4F814901368A3F1010313601268D8F85B
:104530000020A2F10102C8F80020DBF80020A2F15F
:104540000102CBF80020C9B10028CAF80000B7D199
:1045500089F31188B4E740F27850C2F20000006895
:104560000228B3D34EF60450CEF200004FF0805133
:104570000160BFF34F8FBFF36F8FA7E74FF050007D
:1045800080F31188BFF36F8FBFF34F8FFEE74FF0BB
:10459000500080F31188BFF36F8FBFF34F8F00BFC0
:1045A000FEE7000008480068006880F308884FF0C4
:1045B000000080F3148862B661B6BFF34F8FBFF37B
:1045C0006F8F00DF00BF00BF08ED00E081B000206A
:1045D000009040F20800C2F2000000684FF0500165
:1045E00081F31188BFF36F8FBFF34F8F013001D07C
:1045F000FEE700BF00980028FCD001B07047000023
:10460000F0B581B040F26C51C2F200010A6801328B
:104610000A6040F29461C2F200010A6862B140F29D
:104620009862C2F200021278002A18BF4FF00042CE
:10463000024240F08C8038E040F2B062C2F20002E8
:10464000D71D27F0070712F00703A2EB070618BFD4
:104650003A4640F2A067C2F200070025C7E90025EC
:104660004FF47057002B18BF06F57057D319083B4D
:1046700023F007030B60C3E900550F689B1AC2E9DA
:10468000007340F2A862C2F20002136040F29C6222
:10469000C2F20002136040F29862C2F200020123EB
:1046A00013704FF00042024251D1A0B110F0070246
:1046B00000F108041EBFA01A00F108045FEA44706C
:1046C0000AD04FF0500080F31188BFF36F8FBFF313
:1046D0004F8F00BFFEE7002440F29C6EC2F2000E36
:1046E000DEF80000621E824231D240F2A063C2F2C4
:1046F00000031F683A4652F8045FA54211D2386899
:1047000058B100BF024652F8045F3B460746A54237
:1047100007D238680028F5D103E040F2A063C2F266
:1047200000030868874212D0D3F800C03E68281BF7
:1047300011281E603ED33B195D0719D04FF0500081
:1047400080F31188BFF36F8FBFF34F8FFEE7002414
:1047500000F03CFB600708D04FF0500080F3118858
:10476000BFF36F8FBFF34F8FFEE7204601B0F0BD60
:1047700040F2A065C2F20005586014602C462D6816
:104780009D42FBD3606826189E4201D05E6803E01C
:104790005B681E18234666609819A84206D108680F
:1047A000854203D0D5E90050304458609C421D60DA
:1047B00018BF236040F2A8601168DEF80030C2F232
:1047C000000004685B1AA342CEF8003038BF0360D3
:1047D00040F29860C2F2000000780CF10804002852
:1047E0004FF0000018BF41F00041386040F2AC606B
:1047F000C2F2000003681160591C0160A8E70000C4
:10480000DFF80C00016841F470010160704700BFDF
:1048100088ED00E080B5002808BF80BD40F29861B7
:10482000C2F200010A7850F804CC002A18BF4FF0F9
:10483000004212EA0C0F0CD0A0F108010B6893B1F2
:104840004FF0500080F31188BFF36F8FBFF34F8F8D
:10485000FEE74FF0500080F31188BFF36F8FBFF376
:104860004F8F00BFFEE72CEA020240F8042C40F212
:104870006C52C2F2000213680133136050F804CC8A
:1048800040F29C60C2F2000002686244026040F2A2
:10489000A062C2F2000200BF104612688A42FBD337
:1048A000D0F804E000EB0E038B4203D1F444014640
:1048B000C0F804C001EB0C0393420AD140F29463A8
:1048C000C2F200031B689A4203D0D2E9002363447A
:1048D0004B6088420A6018BF016044F2B020C2F207
:1048E0000000016801310160BDE8804000F06EBA4F
:1048F00040F26C50C2F20000006830B140F27050DB
:10490000C2F2000001210160704740F27050C2F213
:1049100000000021016040F27450C2F20000006803
:10492000B0FA80F0C0B2C0F11F0040F2785100EB45
:104930008000C2F2000151F820208AB101EB800111
:1049400051F8040F40680A1D9042086001D1406888
:104950000860C06840F26851C2F200010860704708
:104960004FF0500080F31188BFF36F8FBFF34F8F6C
:10497000FEE700002DE9F047804690001D461746EF
:104980000E46FFF73DFED8B104465420FFF738FE2F
:10499000D0B104EB87020899043A22F007020463BD
:1049A000CEB100F134030027F45DDC55F45D1CB199
:1049B0000F2F07F10107F7D3002380F843300DE0F4
:1049C0004FF0FF30BDE8F0872046FFF723FF4FF0A0
:1049D000FF30BDE8F087002380F8343000F1100C80
:1049E000062D28BF0625002385F007078CE88900DF
:1049F00000F1240CC0E911538CE8290044F2CD5594
:104A00004FF08077C0F60005C36480F8503028F07E
:104A1000010602E9E0006FF0020742E90973443A37
:104A20000029026018BF086040F208094FF05001E9
:104A300081F31188BFF36F8FBFF34F8FC2F200096C
:104A4000D9F8002002F1010AC9F800A012B340F21F
:104A50000463C2F200031E6840F2685801361E600B
:104A6000C2F20008D8F8006040F2086C40F27855B5
:104A7000C2F2000CC2F20005EEB1DCF80010002911
:104A800071D1D8F80010C36AC96A994298BFC8F8B2
:104A9000000068E04EF60453CEF200031B681B06CC
:104AA000D5D04FF0500080F31188BFF36F8FBFF364
:104AB0004F8F00BFFEE7C8F800001B68012B52D1E2
:104AC00000234FF0FF3600242F19394641F8086FB4
:104AD0007960C7E903112B5114348C2CF4D140F2C6
:104AE0001064C2F200044FF0FF3E214640F22466FB
:104AF00041F808EFC2F200066160C4E90311002327
:104B00003146236041F808EF7160C6E9031140F2B5
:104B10003861C2F200010F46336047F808EF4F607A
:104B2000C1E903770B6040F24C61C2F200010F460D
:104B300047F808EF4F60C1E903770B6040F260610E
:104B4000C2F200010F4647F808EF4F60C1E9037752
:104B50000B6040F27461C2F200010C6040F27861B7
:104B6000C2F200010E6040F20C61C2F200010B685B
:104B700040F2745701330B60C16AC2F2000701238F
:104B80003E688B40334301EB81013B6005EB8103C1
:104B90005F68041DBE688760C660BE68BC607460E4
:104BA000436155F82130BAF1000F03F1010345F8D4
:104BB00021301FD0C9F8002012B9002181F31188DB
:104BC000DCF8001099B1D8F80010C06AC96A8142B7
:104BD0000DD24EF60450CEF200004FF0805101602D
:104BE000BFF34F8F0120BFF36F8FBDE8F087012027
:104BF000BDE8F0874FF0500080F31188BFF36F8F4E
:104C0000BFF34F8FFEE700002DE9F04F40F26C50EC
:104C1000C2F20000006848B140F28460C2F20000B5
:104C20000168013101600020BDE8F08F40F288602A
:104C3000C2F20000016811F1010EC0F800E02ED3AD
:104C400040F27460C2F20000026812684AB14FF08C
:104C5000500080F31188BFF36F8FBFF34F8F00BFF9
:104C6000FEE740F27863C2F2000302681F68076043
:104C70001A6040F28C62C2F20002136801331360C2
:104C80000268126822B10068C068C068406801E02C
:104C90004FF0FF3040F28062C2F20002106040F23A
:104CA0008061C2F20001086840F278588645C2F27D
:104CB000000801D2002072E040F2746BC2F2000BD7
:104CC000DBF80000006800285ED040F2745A4FF014
:104CD0000109C2F2000A002026E000BFF96ADAF8F2
:104CE000002009FA01F31A43CAF8002001EB8102FF
:104CF00008EB82035E687B61B568BE60FD60B568E5
:104D0000B4606C6058F82230013348F8223040F229
:104D10006852C2F200021268D26ADBF80030914297
:104D2000196828BF484699B3DBF80040E468E76893
:104D30003C4654F8045FAE452CD3D7E902367D6972
:104D40009E60D5F804C0FE680021A445736008BFCA
:104D50006E6079612B68013B2B602B68BD6A002D6A
:104D6000BCD0D7E907366A689E6007F118013E6A31
:104D70008A424FF00001736008BF6E60B962296813
:104D8000013929602968A9E74FF0FF35002005E0C7
:104D90004FF0FF3540F28061C2F200010D6040F239
:104DA0006851C2F200010968C96A01EB810158F833
:104DB0002110012940F27051C2F2000188BF012088
:104DC0000968002918BF0120BDE8F08F2DE9F04FD8
:104DD00081B040F26C50C2F2000001684FF0500206
:104DE00082F31188BFF36F8FBFF34F8FC1B140F2D1
:104DF0000807C2F2000739684A1C3A6089B10168A5
:104E0000013901600068E0B100203968002900F034
:104E100090800139396000F0968001B0BDE8F08FD4
:104E2000FEE74EF60451CEF2000109680906E6D00D
:104E30004FF0500080F31188BFF36F8FBFF34F8F97
:104E4000FEE740F20460C2F2000000680028DBD0F8
:104E500040F2386BC2F2000BDBF8000040F27054F5
:104E60000028C2F2000400F09280DBF80C0040F24F
:104E70007852C168C2F2000201F11800D1E90A8E2D
:104E80000090012000FA0EF90EEB8E004E6902EB45
:104E9000800240F274500B1D02F1040AC2F20000BD
:104EA00007E000BFDBF800704FF00008002F164647
:104EB0004FD0D1E90774009DBC60D8F80440D1F808
:104EC00020C0AC42CCF8047008BFC8F804C0D8F8C1
:104ED0000070013FC8F80070D8F80070D1E90247AF
:104EE0007568A760CF689D427C6008BF77603768AF
:104EF000013F37603768076847EA09070760DAF853
:104F00000070BE688F60CE60BE68BB60736017685B
:104F10000137176040F26857C2F200073F68FF6A26
:104F2000BE45BFD340F27057C2F2000701263E6073
:104F3000B8E74FF0500080F31188BFF36F8FBFF3D5
:104F40004F8F00BFFEE7002181F3118801B0BDE85B
:104F5000F08F40F27460C1F828804A61C2F200000C
:104F60000168096821B10068C068C068406801E054
:104F70004FF0FF3040F2080740F2705440F2806179
:104F8000C2F20007C2F20004C2F20001086040F25F
:104F90008468C2F20008D8F800505DB1012600BF55
:104FA000FFF732FE002818BF2660013DF8D100202F
:104FB000C8F80000206800283FF426AF4EF60450E1
:104FC000CEF200004FF080510160BFF34F8F0120FF
:104FD000BFF36F8F19E7000010B500290AD00878D9
:104FE000002807D005487844FBF79EFD002801D033
:104FF000002010BD0248784410BD0000F6010000FA
:10500000EE010000F1EE100A4FF6FF71C0F2C03160
:1050100020EA010040F04070E1EE100A7047000005
:10502000000001020304230D0A000D0A537570707D
:105030006F7274656420636F6D6D616E64733A0D99
:105040000A48454C50202D2063616C6C20746869BF
:105050007320696E737472756374696F6E0D0A5391
:1050600045542078205B706F736974696F6E5D20A2
:105070002D20736574206E657720706F7369746975
:105080006F6E20666F72206178797320780D0A53F5
:1050900045542079205B706F736974696F6E5D2071
:1050A0002D20736574206E657720706F7369746945
:1050B0006F6E20666F72206178797320790D0A53C4
:1050C0004554207A205B706F736974696F6E5D2040
:1050D0002D20736574206E657720706F7369746915
:1050E0006F6E20666F722061787973207A0D0A0ADC
:1050F000474554207820706F73202D207265747599
:10510000726E20706F736974696F6E20666F7220A3
:105110006178797320780D0A474554207920706FA3
:1051200073202D2072657475726E20706F736974B0
:10513000696F6E20666F72206178797320790D0A2D
:10514000474554207A20706F73202D207265747546
:10515000726E20706F736974696F6E20666F722053
:1051600061787973207A0D0A0A53544F50202D200C
:1051700073746F702070726573656E74206D6F76D6
:10518000650D0A0072656C61795F310072656C6152
:10519000795F320072656C61795F330073657420EA
:1051A00072656C61795F31202564007365742072CB
:1051B000656C61795F32202564000000F0520008C0
:1051C0000000002070030000D001000840530008D8
:1051D00070030020704500002C0200081001000040
:1051E00043000000F8FFFFFF0040404040404040C7
:1051F00040404141414141404040404040404040AA
:10520000404040404040404040050202020202024D
:10521000020202020202020202202020202020209C
:1052200020202002020202020202909090909090B0
:10523000101010101010101010101010101010106E
:1052400010101010020202020202888888888888E2
:1052500008080808080808080808080808080808CE
:1052600008080808020202024000000000000000D6
:10527000000000000000000000000000000000002E
:10528000000000000000000000000000000000001E
:10529000000000000000000000000000000000000E
:1052A00000000000000000000000000000000000FE
:1052B00000000000000000000000000000000000EE
:1052C00000000000000000000000000000000000DE
:1052D00000000000000000000000000000000000CE
:1052E00000000000000000000000000000000000BE
:1052F00042101324F41AAA01112408024014024097
:1053000003120442022A0410A132641EE803F401CD
:10531000EE1D13300452203924140240047A05345F
:105320000A19013442044A0C3412067A0634390848
:1053300009153432081A780803FFE80301FF01C495
:040000050800019559
:00000001FF
